S0130000526F6269745F784D6567612E73726563C0
S11300000DC100002CC100002AC1000028C100005D
S113001026C1000024C1000022C1000020C100004C
S11300201EC100001CC100001AC1000018C100005C
S113003016C1000014C1000093C70000BEC7000031
S1130040E9C700000C9437080C9464080C949108D8
S11300500C94BE080C94EB080C9418090C944509F4
S1130060FEC00000FCC00000FAC00000F8C00000A0
S1130070F6C00000F4C00000F2C00000F0C00000B0
S1130080EEC00000ECC00000EAC00000E8C00000C0
S1130090E6C00000E4C00000E2C00000E0C00000D0
S11300A0DEC00000DCC00000DAC00000D8C00000E0
S11300B0D6C00000D4C00000D2C000000C94340BA1
S11300C00C94610B0C948E0B0C94BB0B0C94E80BEE
S11300D00C94150C0C94420C0C946F0C0C949C0C0A
S11300E00C94C90CBCC00000BAC00000B8C0000029
S11300F0B6C00000B4C00000B2C00000B0C0000030
S1130100AEC00000ACC00000AAC00000A8C000003F
S1130110A6C00000A4C00000A2C00000A0C000004F
S11301209EC000009CC000009AC0000098C000005F
S113013096C000000C9472090C949F090C94CC098D
S11301400C94F9090C94260A0C94530A0C94800A12
S11301500C94AD0A0C94DA0A0C94070B80C00000CE
S11301607EC000007CC000007AC0000078C000009F
S113017076C0000074C0000072C0000070C00000AF
S11301806EC000006CC000006AC0000068C00000BF
S113019066C0000064C0000062C0000060C00000CF
S11301A05EC000005CC000005AC0000058C00000DF
S11301B00C94F60C0C94230D0C94500D0C947D0DA2
S11301C00C94AA0D0C94D70D4AC0000048C000003E
S11301D046C0000044C0000042C0000040C000000F
S11301E03EC000003CC000003AC0000038C000001F
S11301F036C000000C94F5120C94AF13020FF00EED
S1130200F30EF60EF90EFC0EFF0E11121314151652
S11302100A0B0C0D0E0F00010203040511241FBE6E
S1130220CFEFCDBFDFE5DEBF00E00CBF10E2A0E002
S1130230B0E2E4EAF4E300E00BBF02C007900D92E1
S1130240AA39B107D9F723E2ACE9B0E201C01D92A3
S1130250AB37B207E1F70E9403190C94501AD0CEC1
S11302608091B22181508093B221089580E0089555
S113027080E0089580914A238823DCF480768032DC
S1130280E9F580914B238132D9F5809150239091E7
S113029051230797B9F580EC91E280935223909310
S11302A0532387E090E0809354239093552381E077
S11302B008958076803241F580914B23803221F07D
S11302C0823221F581E00895809150239091512349
S11302D00797F1F48AE891E080935623909357238B
S11302E080EC91E2809352239093532387E090E033
S11302F0809354239093552381E0089580E00895DA
S113030080E0089580E0089580E0089580E00895F5
S113031080E0089508951092B2211092BE211092A7
S1130320BF2181EA8093B42180E28093B5211092A9
S1130330B6211092B7211092B8211092B92182E00F
S113034090E08093BA219093BB211092BC2110922B
S1130350BD2180E092ECA1E0B0E08093C0219093B5
S1130360C121A093C221B093C3211092C421109241
S1130370C52188E08093C6210E94D518882329F0DE
S11303809091B2219F5F9093B2210895FF920F93B1
S11303901F93CF93DF9380919F2081119CC00E9473
S11303A03811882351F0C091A020D091A1200E943F
S11303B04511C817D90759F48EC0C091A020D09117
S11303C0A1200E944011C817D90709F484C0DFB7DF
S11303D0F894C091A220EC2FF0E0EE0FFF1FED5532
S11303E0FF4D80819181892B09F580919C2090910A
S11303F09D20019680939C2090939D200E9438110B
S1130400811107C080919C2090919D208436910594
S113041058F00E943811882349F080919C209091D3
S11304209D208032934010F4DFBF55C010929C2071
S113043010929D2080919E20811106C081E0C111FF
S113044080E08093A22004C081E0C11180E0C82F25
S113045081E080939F20DFBFD0E0FE01EE0FFF1FFD
S1130460ED55FF4DFF24F3948081918180349105F3
S113047009F4F12CFF2091F00E943811882339F0FF
S11304800E9445118093A0209093A1200BC00E944C
S113049040118093A0209093A12004C01092A0202A
S11304A01092A120FE01EE0FFF1FED55FF4D20819C
S11304B03181AE010024569547950794569547958A
S11304C00794542F402D48555F4D01E712E06F2DDE
S11304D081E80E94F711DF91CF911F910F91FF9056
S11304E00895811115C02091A22081E090E022237B
S11304F011F080E090E0FC01EE0FFF1FED55FF4D81
S11305001082118210929E2010929F2080E03ECF94
S1130510089580E03BCF08958091B121815080936C
S1130520B1218091B1210E94D9181092B02108956F
S11305304FB7F8942091292130912A21E0912B2161
S1130540F0E0EE0FFF1FE45DFE4D80819181821B80
S1130550930B4FBF0895ECDF21E0892B09F420E0D1
S1130560822F08950F931F93CF93DF934FB7F8947F
S113057050912B2180912821811110C02091292193
S113058030912A21C52FD0E0FE01EE0FFF1FE45D5C
S1130590FE4D808191812817390718F44FBF80E000
S11305A023C01092292110922A2181E0511180E068
S11305B080932B2181E0809328214FBF80E0CBDF03
S11305C0AE01002456954795079456954795079490
S11305D0542F402D405D5E4D0BE213E020E430E0EB
S11305E061E082E00E94F711DF91CF911F910F919A
S11305F008951092B12110929F2010929E20109283
S1130600A2201092A3201092A4201092A520109250
S1130610A6201092A0201092A12080E0B7DE1092B4
S1130620282110922B2110922C2110922D2110920E
S1130630292110922A2180E095DF882359F0909196
S1130640B1219F5F9093B1219091B121913011F428
S11306509093B02108950F931F93942F811129C073
S113066080912B21E1E08111E0E061157105B1F485
S1130670F0E00024F695E7950794F695E79507943E
S1130680FE2FE02DAF01405D5E4D0BE213E020E450
S113069030E061E0892F0E94F7110BC0F0E0EE0F0B
S11306A0FF1FE45DFE4D608371831092282180E07A
S11306B059DF1F910F9108959FB7F8948091A2205C
S11306C0E82FF0E0EE0FFF1FED55FF4D2081318143
S11306D02034310589F440919F2041110DC040918F
S11306E09E20411109C021E020939E20811120E029
S11306F02093A22020E030E09FBF80E490E0821BA2
S1130700930B0895D9DF21E0892B09F420E0822F8F
S113071008951F93CF93DF93162FC72FD1E08091B5
S1130720C621893009F0D0E080E0ECDF811107C0F8
S11307308091B0218111F8CF80E090E02BC06FB799
S1130740F8942091A22030E0F901EE0FFF1FED553F
S1130750FF4D80819181AC014F5F5F4F4083518396
S1130760F9010024F695E7950794F695E795079423
S1130770FE2FE02D8E0F9F1FFC01E855FF4D1083C7
S11307806FBFDD2329F01C2FCC0FCC0BD0E0CCCFD6
S113079081E090E0DF91CF911F910895BC0180E04A
S11307A0B8CF0895E091CC21F091CD210190F08152
S11307B0E02D228133812E0F3F1FFC014081E40F85
S11307C0F11DE217F307A0F481818430A1F08613B0
S11307D006C014C081818430A1F08617A9F08081FD
S11307E0E80FF11DE217F307A8F380E090E0089505
S11307F080E090E0089580E090E008958E2F9F2F90
S1130800089580E090E008958E2F9F2F08958091A1
S11308104C238F770C943A1108959091CE2199230B
S113082081F1E091CC21F091CD210190F081E02D76
S11308309481891740F5E093CA21F093CB2122815A
S113084033812E0F3F1FE217F307F8F491819430A0
S113085061F49281981309C09381961306C0E093C2
S1130860CA21F093CB2181E008959081E90FF11D15
S1130870E217F30758F3E093CA21F093CB2180E009
S1130880089580E0089580E0089580E00895FF923F
S11308900F931F93CF93DF93C82F60E0BEDFF82E32
S11308A0882381F1A091CC21B091CD21EC2FF0E0EF
S11308B0EE0FFF1F12962D913C911397E20FF31F39
S11308C000811181D8011696ED91FC911797199525
S11308D0682F8C2FA2DFF82E8823A1F0C091CA21A3
S11308E0D091CB2165E0CE015DDFEC01009721F0D2
S11308F08A810E94B712F6CFD8011296ED91FC912D
S1130900139719958F2DDF91CF911F910F91FF9020
S113091008951F93CF93DF93182F7FDF882341F12E
S1130920C091CA21D091CB2165E0CE013BDFEC011F
S1130930009749F04C815D816B818A810E9451113D
S11309408111F2CF15C0A091CC21B091CD21812F7E
S113095090E0880F991F1296ED91FC911397E80F80
S1130960F91F0190F081E02D0190F081E02D19959F
S1130970DF91CF911F9108950C94C7100895CF93E0
S11309808091CE218823C1F0E091CC21F091CD213A
S11309900190F081E02D8481882371F0C0E08C2FD8
S11309A076DFCF5FE091CC21F091CD210190F081F1
S11309B0E02D8481C81798F31092CE2181E090E055
S11309C08093D2219093D321CF910895CF93809196
S11309D0CE21882341F1E091CC21F091CD21A08159
S11309E0B18114968C918823F1F0C0E08C2F90E0B3
S11309F0880F991F0280F381E02DE80FF91F019001
S1130A00F081E02D0084F185E02D309709F01995EF
S1130A10CF5FE091CC21F091CD21A081B1811496DA
S1130A208C91C81718F3CF910895EF92FF920F930A
S1130A301F93CF93DF931092542310925523109257
S1130A405623109257231092582310925923209121
S1130A504A2322230CF072C2809150239091512397
S1130A60009709F070C266C22F7109F091C03091ED
S1130A704B23363089F0383009F47EC0311188C0F8
S1130A80029741F462E070E082ED91E20E94481125
S1130A9001E0D3C100E0D1C120914C2330914D231A
S1130AA0832F992782309105A1F01CF4019739F026
S1130AB059C083309105E9F10F9769F153C08091D2
S1130AC0182090911920DC016C9170E00E9448116B
S1130AD038C0E0911820F09119208189281708F076
S1130AE043C0C9019927880F991F880F991FE09166
S1130AF01A20F0911B20E80FF91F80819181FC01DD
S1130B00628173810E944811E0915223F091532332
S1130B1082E0818316C080911C2090911D20009753
S1130B2029F1DC0112966D917C9113970E94481172
S1130B3008C021111DC064E070E084E190E20E94CD
S1130B404811809150239091512320915423309146
S1130B5055238217930770F480935423909355235D
S1130B6001E06BC100E069C100E067C100E065C15C
S1130B7000E063C101E061C1019741F461E070E00C
S1130B808EEC91E20E94481101E057C100E055C18A
S1130B90213009F040C030914B233A30E1F5019700
S1130BA0A1F58091CE21882391F1C0914E23D0915B
S1130BB04F23E090CC21F090CD21D701ED91FC9111
S1130BC08481C81730F560E08C2F27DE082F882336
S1130BD009F433C1CE019927880F991FD7011296C2
S1130BE0ED91FC911397E80FF91F0190F081E02D2E
S1130BF00680F781E02D19958093D02161E070E0A3
S1130C0080ED91E20E94481118C100E016C100E095
S1130C1014C100E012C1223009F011C120914B230C
S1130C20211106C1029789F480914E230E94B211CA
S1130C3090E08093C8219093C92162E070E088EC31
S1130C4091E20E94481101E0F8C000E0F6C02F7163
S1130C5009F091C080914B23833009F4EBC018F460
S1130C608130B1F088C0853019F0893061F183C0DA
S1130C708091502390915123892B41F487E094E093
S1130C80809356239093572301E0D7C000E0D5C04A
S1130C908091502390915123892B89F480914C2386
S1130CA090914D23019769F48091D2219091D321A1
S1130CB08D7F8093D2219093D32101E0BEC000E0C8
S1130CC0BCC000E0BAC08091502390915123892B7D
S1130CD009F047C00E943D11882309F444C02091C3
S1130CE04C2330914D233327E0911820F0911920A3
S1130CF0818990E082179307C0F141DE80914C23F3
S1130D0090914D238093CE21882389F19927815096
S1130D10904C880F991F880F991FE0911A20F09129
S1130D201B20E80FF91FE093CC21F093CD21019013
S1130D30F081E02D84818823E1F0C0E060E08C2F15
S1130D40E8DD082F882309F478C0CF5FE091CC2137
S1130D50F091CD210190F081E02D8481C81770F3CA
S1130D606CC000E06AC000E068C000E066C001E05A
S1130D7064C001E062C0213009F580914B238B30BF
S1130D80E9F48091502390915123892B99F4809117
S1130D90CE21882389F0C0914E23D0914C238C2FEF
S1130DA076DD082F882309F448C06D2F8C2FB1DD20
S1130DB0082F43C000E041C000E03FC0223009F0EA
S1130DC03EC080914B23813019F08330B9F034C098
S1130DD08091502390915123892B61F480914C236D
S1130DE090914D23892B41F480914E230E94CD1183
S1130DF0082F23C000E021C000E01FC080915023D1
S1130E0090915123892B81F480914C2390914D230F
S1130E10892B61F4CEE4D3E288810E947E1288811A
S1130E200E94D412082F09C000E007C000E005C0EA
S1130E3000E003C000E001C000E0011189C080911E
S1130E404A238F718130C1F58091CE218823A1F18D
S1130E50C0914E23D0914F230091CC211091CD21EC
S1130E60D801ED91FC918481C81730F560E08C2F96
S1130E70D4DC882309F1CE019927880F991FD80162
S1130E801296ED91FC911397E80FF91F00811181DF
S1130E90D8011696ED91FC9117971995682F8C2F10
S1130EA0BCDC882349F0D8011496ED91FC91159788
S1130EB01995082F81114CC080914A238F7182307B
S1130EC0D9F58091CE21882389F1E091CC21F0914C
S1130ED0CD21A081B18114968C91882349F110E031
S1130EE0212F30E0220F331F0280F381E02DE20F27
S1130EF0F31FC081D181EE81FF811995682F812F65
S1130F008CDC082F882321F1EC81FD811995082FB1
S1130F1081111EC01F5FE091CC21F091CD21A081F1
S1130F20B18114968C911817D8F212C000E010C049
S1130F3000E00EC000E00CC000E00AC0822F807602
S1130F4009F07DCF84CE322F307609F078CF8CCD66
S1130F50802FDF91CF911F910F91FF90EF90089513
S1130F601F920F920FB60F9211240BB60F922F936C
S1130F703F934F935F936F937F938F939F93AF931D
S1130F80BF93EF93FF93E0911A22F0911B223097C5
S1130F9009F01995FF91EF91BF91AF919F918F91B6
S1130FA07F916F915F914F913F912F910F900BBE65
S1130FB00F900FBE0F901F9018951F920F920FB6AF
S1130FC00F9211240BB60F922F933F934F935F937D
S1130FD06F937F938F939F93AF93BF93EF93FF93FD
S1130FE0E0911822F0911922309709F01995FF9198
S1130FF0EF91BF91AF919F918F917F916F915F918D
S11310004F913F912F910F900BBE0F900FBE0F90F9
S11310101F9018951F920F920FB60F9211240BB6C2
S11310200F922F933F934F935F936F937F938F937D
S11310309F93AF93BF93EF93FF93E0911622F091A8
S11310401722309709F01995FF91EF91BF91AF9155
S11310509F918F917F916F915F914F913F912F91CC
S11310600F900BBE0F900FBE0F901F9018951F92FC
S11310700F920FB60F9211240BB60F922F933F933A
S11310804F935F936F937F938F939F93AF93BF938C
S1131090EF93FF93E0911422F0911522309709F019
S11310A01995FF91EF91BF91AF919F918F917F918E
S11310B06F915F914F913F912F910F900BBE0F90C5
S11310C00FBE0F901F9018951F920F920FB60F929C
S11310D011240BB60F922F933F934F935F936F930B
S11310E07F938F939F93AF93BF93EF93FF93E0917D
S11310F01222F0911322309709F01995FF91EF9184
S1131100BF91AF919F918F917F916F915F914F911B
S11311103F912F910F900BBE0F900FBE0F901F9019
S113112018951F920F920FB60F9211240BB60F92BF
S11311302F933F934F935F936F937F938F939F93DB
S1131140AF93BF93EF93FF93E0911022F09111229C
S1131150309709F01995FF91EF91BF91AF919F914D
S11311608F917F916F915F914F913F912F910F904C
S11311700BBE0F900FBE0F901F9018951F920F92E9
S11311800FB60F9211240BB60F922F933F934F93E8
S11311905F936F937F938F939F93AF93BF93EF93DB
S11311A0FF93E0910E22F0910F22309709F01995E8
S11311B0FF91EF91BF91AF919F918F917F916F912B
S11311C05F914F913F912F910F900BBE0F900FBEE7
S11311D00F901F9018951F920F920FB60F92112423
S11311E00BB60F922F933F934F935F936F937F931D
S11311F08F939F93AF93BF93EF93FF93E0910C2250
S1131200F0910D22309709F01995FF91EF91BF915C
S1131210AF919F918F917F916F915F914F913F918A
S11312202F910F900BBE0F900FBE0F901F9018952B
S11312301F920F920FB60F9211240BB60F922F9399
S11312403F934F935F936F937F938F939F93AF934A
S1131250BF93EF93FF93E0910A22F0910B22309712
S113126009F01995FF91EF91BF91AF919F918F91E3
S11312707F916F915F914F913F912F910F900BBE92
S11312800F900FBE0F901F9018951F920F920FB6DC
S11312900F9211240BB60F922F933F934F935F93AA
S11312A06F937F938F939F93AF93BF93EF93FF932A
S11312B0E0910822F0910922309709F01995FF91E5
S11312C0EF91BF91AF919F918F917F916F915F91BA
S11312D04F913F912F910F900BBE0F900FBE0F9027
S11312E01F9018951F920F920FB60F9211240BB6F0
S11312F00F922F933F934F935F936F937F938F93AB
S11313009F93AF93BF93EF93FF93E0910622F091E5
S11313100722309709F01995FF91EF91BF91AF9192
S11313209F918F917F916F915F914F913F912F91F9
S11313300F900BBE0F900FBE0F901F9018951F9229
S11313400F920FB60F9211240BB60F922F933F9367
S11313504F935F936F937F938F939F93AF93BF93B9
S1131360EF93FF93E0910422F0910522309709F066
S11313701995FF91EF91BF91AF919F918F917F91BB
S11313806F915F914F913F912F910F900BBE0F90F2
S11313900FBE0F901F9018951F920F920FB60F92C9
S11313A011240BB60F922F933F934F935F936F9338
S11313B07F938F939F93AF93BF93EF93FF93E091AA
S11313C00222F0910322309709F01995FF91EF91D1
S11313D0BF91AF919F918F917F916F915F914F9149
S11313E03F912F910F900BBE0F900FBE0F901F9047
S11313F018951F920F920FB60F9211240BB60F92ED
S11314002F933F934F935F936F937F938F939F9308
S1131410AF93BF93EF93FF93E0910022F0910122E9
S1131420309709F01995FF91EF91BF91AF919F917A
S11314308F917F916F915F914F913F912F910F9079
S11314400BBE0F900FBE0F901F9018951F920F9216
S11314500FB60F9211240BB60F922F933F934F9315
S11314605F936F937F938F939F93AF93BF93EF9308
S1131470FF93E091FE21F091FF21309709F0199537
S1131480FF91EF91BF91AF919F918F917F916F9158
S11314905F914F913F912F910F900BBE0F900FBE14
S11314A00F901F9018951F920F920FB60F92112450
S11314B00BB60F922F933F934F935F936F937F934A
S11314C08F939F93AF93BF93EF93FF93E091FC218E
S11314D0F091FD21309709F01995FF91EF91BF919B
S11314E0AF919F918F917F916F915F914F913F91B8
S11314F02F910F900BBE0F900FBE0F901F90189559
S11315001F920F920FB60F9211240BB60F922F93C6
S11315103F934F935F936F937F938F939F93AF9377
S1131520BF93EF93FF93E091FA21F091FB21309761
S113153009F01995FF91EF91BF91AF919F918F9110
S11315407F916F915F914F913F912F910F900BBEBF
S11315500F900FBE0F901F9018951F920F920FB609
S11315600F9211240BB60F922F933F934F935F93D7
S11315706F937F938F939F93AF93BF93EF93FF9357
S1131580E091F821F091F921309709F01995FF9134
S1131590EF91BF91AF919F918F917F916F915F91E7
S11315A04F913F912F910F900BBE0F900FBE0F9054
S11315B01F9018951F920F920FB60F9211240BB61D
S11315C00F922F933F934F935F936F937F938F93D8
S11315D09F93AF93BF93EF93FF93E091F621F09124
S11315E0F721309709F01995FF91EF91BF91AF91D1
S11315F09F918F917F916F915F914F913F912F9127
S11316000F900BBE0F900FBE0F901F9018951F9256
S11316100F920FB60F9211240BB60F922F933F9394
S11316204F935F936F937F938F939F93AF93BF93E6
S1131630EF93FF93E091F421F091F521309709F0B5
S11316401995FF91EF91BF91AF919F918F917F91E8
S11316506F915F914F913F912F910F900BBE0F901F
S11316600FBE0F901F9018951F920F920FB60F92F6
S113167011240BB60F922F933F934F935F936F9365
S11316807F938F939F93AF93BF93EF93FF93E091D7
S1131690F221F091F321309709F01995FF91EF9120
S11316A0BF91AF919F918F917F916F915F914F9176
S11316B03F912F910F900BBE0F900FBE0F901F9074
S11316C018951F920F920FB60F9211240BB60F921A
S11316D02F933F934F935F936F937F938F939F9336
S11316E0AF93BF93EF93FF93E091F021F091F12139
S11316F0309709F01995FF91EF91BF91AF919F91A8
S11317008F917F916F915F914F913F912F910F90A6
S11317100BBE0F900FBE0F901F9018951F920F9243
S11317200FB60F9211240BB60F922F933F934F9342
S11317305F936F937F938F939F93AF93BF93EF9335
S1131740FF93E091EE21F091EF21309709F0199584
S1131750FF91EF91BF91AF919F918F917F916F9185
S11317605F914F913F912F910F900BBE0F900FBE41
S11317700F901F9018951F920F920FB60F9211247D
S11317800BB60F922F933F934F935F936F937F9377
S11317908F939F93AF93BF93EF93FF93E091EC21CB
S11317A0F091ED21309709F01995FF91EF91BF91D8
S11317B0AF919F918F917F916F915F914F913F91E5
S11317C02F910F900BBE0F900FBE0F901F90189586
S11317D01F920F920FB60F9211240BB60F922F93F4
S11317E03F934F935F936F937F938F939F93AF93A5
S11317F0BF93EF93FF93E091EA21F091EB213097AF
S113180009F01995FF91EF91BF91AF919F918F913D
S11318107F916F915F914F913F912F910F900BBEEC
S11318200F900FBE0F901F9018951F920F920FB636
S11318300F9211240BB60F922F933F934F935F9304
S11318406F937F938F939F93AF93BF93EF93FF9384
S1131850E091E821F091E921309709F01995FF9181
S1131860EF91BF91AF919F918F917F916F915F9114
S11318704F913F912F910F900BBE0F900FBE0F9081
S11318801F9018951F920F920FB60F9211240BB64A
S11318900F922F933F934F935F936F937F938F9305
S11318A09F93AF93BF93EF93FF93E091E621F09161
S11318B0E721309709F01995FF91EF91BF91AF910E
S11318C09F918F917F916F915F914F913F912F9154
S11318D00F900BBE0F900FBE0F901F9018951F9284
S11318E00F920FB60F9211240BB60F922F933F93C2
S11318F04F935F936F937F938F939F93AF93BF9314
S1131900EF93FF93E091E421F091E521309709F002
S11319101995FF91EF91BF91AF919F918F917F9115
S11319206F915F914F913F912F910F900BBE0F904C
S11319300FBE0F901F9018951F920F920FB60F9223
S113194011240BB60F922F933F934F935F936F9392
S11319507F938F939F93AF93BF93EF93FF93E09104
S1131960E221F091E321309709F01995FF91EF916D
S1131970BF91AF919F918F917F916F915F914F91A3
S11319803F912F910F900BBE0F900FBE0F901F90A1
S113199018951F920F920FB60F9211240BB60F9247
S11319A02F933F934F935F936F937F938F939F9363
S11319B0AF93BF93EF93FF93E091E021F091E12186
S11319C0309709F01995FF91EF91BF91AF919F91D5
S11319D08F917F916F915F914F913F912F910F90D4
S11319E00BBE0F900FBE0F901F9018951F920F9271
S11319F00FB60F9211240BB60F922F933F934F9370
S1131A005F936F937F938F939F93AF93BF93EF9362
S1131A10FF93E091DE21F091DF21309709F01995D1
S1131A20FF91EF91BF91AF919F918F917F916F91B2
S1131A305F914F913F912F910F900BBE0F900FBE6E
S1131A400F901F9018951F920F920FB60F921124AA
S1131A500BB60F922F933F934F935F936F937F93A4
S1131A608F939F93AF93BF93EF93FF93E091DC2108
S1131A70F091DD21309709F01995FF91EF91BF9115
S1131A80AF919F918F917F916F915F914F913F9112
S1131A902F910F900BBE0F900FBE0F901F901895B3
S1131AA01F920F920FB60F9211240BB60F922F9321
S1131AB03F934F935F936F937F938F939F93AF93D2
S1131AC0BF93EF93FF93E091DA21F091DB213097FC
S1131AD009F01995FF91EF91BF91AF919F918F916B
S1131AE07F916F915F914F913F912F910F900BBE1A
S1131AF00F900FBE0F901F9018951F920F920FB664
S1131B000F9211240BB60F922F933F934F935F9331
S1131B106F937F938F939F93AF93BF93EF93FF93B1
S1131B20E091D821F091D921309709F01995FF91CE
S1131B30EF91BF91AF919F918F917F916F915F9141
S1131B404F913F912F910F900BBE0F900FBE0F90AE
S1131B501F9018951F920F920FB60F9211240BB677
S1131B600F922F933F934F935F936F937F938F9332
S1131B709F93AF93BF93EF93FF93E091D621F0919E
S1131B80D721309709F01995FF91EF91BF91AF914B
S1131B909F918F917F916F915F914F913F912F9181
S1131BA00F900BBE0F900FBE0F901F9018951F92B1
S1131BB00F920FB60F9211240BB60F922F933F93EF
S1131BC04F935F936F937F938F939F93AF93BF9341
S1131BD0EF93FF93E091D421F091D521309709F050
S1131BE01995FF91EF91BF91AF919F918F917F9143
S1131BF06F915F914F913F912F910F900BBE0F907A
S1131C000FBE0F901F901895811118C09091482312
S1131C10992389F09FB7F894EAE6F3E220812150F2
S1131C2020839FBF08C09FB7F894EAE6F3E22081BF
S1131C302F5F20839FBF809348230895909148236A
S1131C40992389F3F8CF0F93E8ECF4E080818F7D3A
S1131C50808380818F7D8083ECE1F3E202E0059351
S1131C6010921E2310921F2300E2069300E40693B1
S1131C70E4E1F3E200E2069300E4069310925623B3
S1131C8010925723109258231092592310925423E0
S1131C9010925523109205230F9108950F9385E018
S1131CA080930523EDE1F3E204E00593E5E1F3E23B
S1131CB004E005930F9108950F9383E08093052327
S1131CC010921E2310921F23ECE1F3E202E006932C
S1131CD00F910895E0915623F0915723309709F01E
S1131CE0199508950F93CF93DF9380910523833043
S1131CF019F4F0DFA8DF60C08091012390910223E2
S1131D00C0915423D0915523C81BD90B71F5209150
S1131D10032330910423820F931F80930323909312
S1131D20042320915023309151238217930721F0EB
S1131D3080911C22882341F084E080930523E4E110
S1131D40F3E202E0069338C0E0915823F09159235E
S1131D50309799F01995882381F0109201231092FD
S1131D600223C0915423D0915523C034D10528F0C7
S1131D7010921C22C0E4D0E003C081E080931C22B6
S1131D80C0931E23D0931F2380910123909102239B
S1131D902091522330915323280F391F209320235D
S1131DA030932123C80FD91FC0930123D09302235A
S1131DB0ECE1F3E202E00693DF91CF910F910895F5
S1131DC0FC018181877090E0FC013197E730F105D7
S1131DD020F4E250FF4F0C940E1A88E090E008952E
S1131DE080E290E0089580E490E0089580E890E037
S1131DF0089580E091E0089580E092E008958FEFE7
S1131E0093E0089580E190E00895282F2F7030E04A
S1131E10220F331F992787FD90958827990F881FD4
S1131E209927820F931F02979C01220F331F220FC1
S1131E30331F220F331F820F931F83569D4D089526
S1131E400F93CF938091CC0480FF63C081E0809393
S1131E50CC04E4E1F3E200E80693ECE1F3E200E809
S1131E6006938093CA04E4E1F3E200E106938091CF
S1131E700523882329F08350823008F42BDFE3DE26
S1131E808091162390911723089709F044C088E0A5
S1131E90E1ECF2E2AAE4B3E201900D928A95E1F753
S1131EA0E8ECF4E0808180628083808180628083BA
S1131EB00E941505C82F811103C0F0DEC1E02CC0BB
S1131EC080914A2388236CF41092032310920423F4
S1131ED0109201231092022382E08093052302DFF3
S1131EE01BC02091502330915123232B11F4E4DEA5
S1131EF013C0109203231092042310920123109212
S1131F00022381E080930523E4E1F3E202E00693F7
S1131F1003C0C0E001C0C1E08C2FCF910F910895A0
S1131F20BF92CF92DF92EF92FF920F931F93CF93C2
S1131F30DF93B82E6ADFEC011B2D111F1127111F2F
S1131F408B2D8F70E82EF12CEE0CFF1CE10EF11C92
S1131F50C701880F991F880F991F880F991F9C012B
S1131F602C5E3C4D7901C9012BDF6C01112309F46E
S1131F705BC0D70116962D913C9117978D819E8158
S1131F80280F391F2D833E838B819C8128173907A5
S1131F90C9F1FC01E21BF30B9F012115F4E03F079B
S1131FA040F02FEF33E0C901B6010E94D819281B75
S1131FB0390B888181FF0AC0C901B6010E94D81972
S1131FC041E0892B09F040E0942F01C090E0888122
S1131FD090FB81F98883D70116961D921C9217975E
S1131FE012962D933C93139729813A818D819E817A
S1131FF0820F931F14968D939C931597F70102E01B
S1132000069398C0888181FF87C08D7F8883D7011C
S113201016961D921C92179712961D921C92139756
S1132020F70102E0069386C0D70112960D911C9128
S11320301397888182FF15C0E981FA812D813E8141
S11320408B819C81B6010E94D819B0E4BB9EB0017B
S1132050112463527E4DAC01CF01820F931F0E9465
S1132060141A2D813E81200F311F2D833E83EB8175
S1132070FC81E217F30710F4ED83FE83D701169673
S11320808D919C9117978017910709F045C08D8118
S11320909E81E817F90709F43FC0E81BF90BE11525
S11320A0B4E0FB0748F0EFEFF3E0CF01B6010E9484
S11320B0D819E81BF90B06C0CF01B6010E94D81944
S11320C0E81BF90BD70112961D921C921397EC157D
S11320D0FD0578F4888184608883B0E4BB9EC001E8
S11320E0112483529E4DF70184839583C682D7823F
S11320F00FC029813A818D819E81820F931FD70160
S113210014968D939C9315971696ED93FC931797BD
S1132110F70102E006930EC0888180FF0BC08E7F1A
S11321208883EF81F885309729F06D817E814B2D6E
S113213080E01995DF91CF911F910F91FF90EF905F
S1132140DF90CF90BF900895CF93CFB7F89481E0FC
S11321505BDDEAECF4E080E4808380E28083E1EC00
S1132160F4E0808181608083A9ECB4E08C9182608A
S11321708C93E8ECF4E08081806480838C918160AE
S11321808C93808180688083CFBFCF910895CF9353
S1132190DF93C0E6D0E0188280E343D7E0ECF4E0BC
S11321A080818064808381E08883CFB7F894109223
S11321B0152310921D231092252310922D23109283
S11321C0352310923D23EDE9F2E280818E7F8083F6
S11321D0E6EAF2E280818E7F8083EFEAF2E2808198
S11321E08E7F8083E8EBF2E280818E7F80836AE1D8
S11321F070E082E093D78F3F19F08093FA0403C014
S11322008FE18093FA046BE170E082E087D78F3F1F
S113221019F08093FB0403C08FE18093FB04E0EC8E
S1132220F4E0808182608083808180688083808103
S11322308061808384E193E28683978380818062D6
S113224080838FEF8093C504E8ECF4E080818160A3
S11322508083109248238FB7F894EEE6F3E29081DE
S11322609F5F90838FBF70DFCFBFDF91CF910895C1
S113227080E008958093C30408958091C304089571
S11322808091442390914523089580E090E008953F
S11322908093522390935323609354237093552334
S11322A00895E82FEF70F0E0EE0FFF1F992787FDE8
S11322B090958827990F881F9927E80FF91FEE0F2B
S11322C0FF1FEE0FFF1FEE0FFF1FEC5EFC4D818121
S11322D0807C09F043C06370613029F010F480E41D
S11322E003C080E801C080EC40385105E1F050F4AF
S11322F040325105A1F04034510599F04031510567
S113230061F419C0411592E0590789F04F3F93E0F9
S1132310590779F04115514041F020E00DC022E009
S11323200BC023E009C024E007C025E005C026E077
S113233003C027E001C021E0118296E09083822B44
S113234081838181807C803C21F481818770873006
S113235039F081818062818381E0089580E008956D
S113236081E00895E82FEF70F0E0EE0FFF1F99274A
S113237087FD90958827990F881F9927E80FF91FE3
S1132380EE0FFF1FEE0FFF1FEE0FFF1FEC5EFC4D65
S1132390818182FB882780F90895E82FEF70F0E0AF
S11323A0EE0FFF1F282F332727FD30952227330FE9
S11323B0221F3327E20FF31FEE0FFF1FEE0FFF1F45
S11323C0EE0FFF1FEC5EFC4D918192FF0EC09181D8
S11323D09B7F91831ADDFC01808180FF06C08E7F84
S11323E080830780F085E02D199581E008957F9220
S11323F08F929F92AF92BF92CF92DF92EF92FF9211
S11324000F931F93CF93DF93982E862E5A01690161
S1132410FCDC7C01792C771C7724771CC92DCF70C8
S1132420D0E0CC0FDD1FC70DD11DCC0FDD1FCC0FAD
S1132430DD1FCC0FDD1FCC5EDC4D8981807C09F46F
S11324404BC08981807C803C19F0898182FD46C023
S11324508FB7F894F701908190FF03C08FBF712C60
S11324603EC0F7019081916090838FBFF701A182F4
S1132470B282C382D48215821682078310878110A8
S113248006C091E0C114D10419F090E001C091E0BC
S1132490F701808190FB81F98B7F8083772019F08D
S11324A01E821F8214C08981807C803C61F4CE012D
S11324B087DCBC01C6017CD7892B29F0F701808118
S11324C08E7F80830CC01A821B821E821F82892DFC
S11324D027DD7724739403C0712C01C0712C872DE0
S11324E0DF91CF911F910F91FF90EF90DF90CF90EC
S11324F0BF90AF909F908F907F900895FF920F931D
S11325001F93CF93DF93182FF82EFF1CFF24FF1C7B
S1132510C82FCF70D0E0CC0FDD1FCF0DD11DCC0F55
S1132520DD1FCC0FDD1FCC0FDD1FCC5EDC4D6DDC61
S1132530DC01FE0102E005938C9180FF12C08E7FC6
S11325408C931796ED91FC911897309751F0FF20DA
S113255019F06E817F8102C06A817B81412F81E005
S11325601995DF91CF911F910F91FF900895CF930B
S1132570C82FC4DFEC2FEF70F0E0EE0FFF1F8C2F9D
S1132580992787FD90958827990F881F9927E80F29
S1132590F91FEE0FFF1FEE0FFF1FEE0FFF1FEC5E84
S11325A0FC4D1182CF9108950F93E82FEF70F0E066
S11325B0EE0FFF1F282F332727FD30952227330FD7
S11325C0221F3327E20FF31FEE0FFF1FEE0FFF1F33
S11325D0EE0FFF1FEC5EFC4D91819460918301E04E
S11325E006938CDF81E00F9108951F920F920FB62E
S11325F00F9211240BB60F920F932F933F934F9387
S11326005F936F937F938F939F93AF93BF93EF9356
S1132610FF938091CB04882334F480E88093CA0428
S11326200E94E60488C08091CB0482FF20C084E02D
S11326308093CA0480911C2386FF7DC08091CC04C2
S113264081FD79C0FDDB811176C080910523813045
S113265011F432DB70C0843009F06DC0EDE1F3E2B7
S113266004E00593E5E1F3E204E0059364C080919E
S1132670CB0481FF5BC082E08093CA048091142361
S113268086FF59C08091CC0481FD55C0D9DB8111EE
S113269052C080910523823041F484E08093052365
S11326A0E4E1F3E202E0069346C0833009F043C05C
S11326B0EDE1F3E204E00593E5E1F3E204E00593E0
S11326C03AC080E18093CA0481E018DF81E816DF14
S11326D00E94BF041092C304E5E1F3E2108296E085
S11326E09093142383E48083EDE1F3E210829093CA
S11326F01C23808381EC92E2809318239093192306
S1132700A2DA19C08091CB0486FF06C080E48093CE
S1132710CA0480E079DA0FC08091CB0485FF0BC036
S113272080E28093CA0481E06FDA05C08091CB0413
S113273084FFE8CFC6CFFF91EF91BF91AF919F91F6
S11327408F917F916F915F914F913F912F910F9155
S11327500F900BBE0F900FBE0F901F9018951F92F5
S11327600F920FB60F9211240BB60F920F931F9373
S11327702F933F934F935F936F937F938F939F9385
S1132780AF93BF93CF93DF93EF93FF938091CC04E8
S113279081FD03C055DB8111B8C082E08093CC0475
S11327A08091C5048195880FE4E1F3E2E81BF10907
S11327B020813181245133423695279536952795CA
S11327C036952795822F869520FF02C090E801C098
S11327D090E0890FE82FEF70F0E0EE0FFF1F282F35
S11327E0332727FD30952227330F221F3327E20F8B
S11327F0F31FEE0FFF1FEE0FFF1FEE0FFF1FEC5E28
S1132800FC4D908195FF81C000E20693811178C050
S113281080910523843019F45DDA15DA76C0C0910D
S11328201623D0911723809154239091552300911E
S113283001231091022398012C0F3D1F8217930747
S113284018F4EC01C01BD10B8091522390915323B7
S1132850AE0161EC72E2800F911FE6D50C0F1D1FD3
S11328600093012310930223C034D10569F48091AD
S1132870032390910423800F911F209150233091C2
S113288051238217930788F0009354231093552300
S1132890E0915823F0915923309729F0199581112B
S11328A002C0FCD932C008DA30C080915423909120
S11328B0552308171907F9F4E0915823F091592387
S11328C0309711F4EBD921C01995811102C0E6D9D2
S11328D01CC0209103233091042380910123909103
S11328E00223820F931F8093032390930423109257
S11328F0012310920223E4E1F3E202E0069305C00F
S1132900803811F4EFD901C00BDBFF91EF91DF9117
S1132910CF91BF91AF919F918F917F916F915F9173
S11329204F913F912F911F910F910F900BBE0F90DC
S11329300FBE0F901F901895882329F084E0E0E4DF
S1132940F6E0858304C084E0E0E4F6E0868380E07A
S113295090E0019684319105E1F70895FC016383C9
S113296082818823ECF783810895CF93C82F80E078
S1132970E3DF6C2F6F7180EC98E0F0DF6FEF80EC99
S113298098E0ECDFC82F81E0D7DF8C2FCF9108953A
S11329900F931F93CF93DF93182FEB01042F80E045
S11329A0CBDF1F71612F606280EC98E0D7DF182FB6
S11329B0402F50E0BE0180EC98E071D281E0BCDF92
S11329C0812FDF91CF911F910F9108951F93CF9382
S11329D0DF931F92CDB7DEB7182F698380E0ACDF99
S11329E01F71612F606280EC98E0B8DF182F41E01E
S11329F050E0BE016F5F7F4F80EC98E050D281E0E1
S1132A009BDF812F0F90DF91CF911F9108958F92BB
S1132A109F92AF92BF92CF92DF92EF92FF920F9369
S1132A201F93CF93DF93CDB7DEB75C01EDB6FEB64F
S1132A3000916823962E061708F4902E80915B234C
S1132A40811102C0091901C000E010E08DB79EB7E2
S1132A50801B910B8DBF9EBF01966C0180E06CDFE3
S1132A6061E680EC98E07ADF882E492D50E0B501CC
S1132A7080EC98E023D2A801B60180EC98E01ED245
S1132A8081E05ADF882DEDBEFEBEDF91CF911F910C
S1132A900F91FF90EF90DF90CF90BF90AF909F90F9
S1132AA08F900895CF93C82F80E046DF6C2F80EC81
S1132AB098E054DFC82F81E03FDF8C2FCF91089539
S1132AC082EEF0CF089581EEEDCF08958FEFEACF37
S1132AD00895803808F08FE7682F85E077CF089550
S1132AE0813208F080E280936823089580E03DDF1E
S1132AF081FD0DC080E039DF682F626080E066DF11
S1132B0080E090E0019680322EE49207D9F7089590
S1132B10CF93DF93EC0187E128DF80FD08C0209785
S1132B2041F0D4DF86958770888381E003C080E01C
S1132B3001C081E0DF91CF91089569DF60E787E00C
S1132B4045CF0895CF93825041F0C82FC3706C2FA6
S1132B5083E03CDFCE5FC0935A23CF9108951F9347
S1132B60CF93DF93182FEB01811107C040915A23B3
S1132B7050E08DE593E258D405C0873008F02EC0AC
S1132B80823050F4E12FF0E0E05FFD4F84914091FA
S1132B905A23BE01FDDE07C0E82FF0E0E05FFD4FE1
S1132BA0849141E0F5DEC12FD0E0FE01E65FFD4FE8
S1132BB08491609168230ADF82E0D7DEFE01EA5E39
S1132BC0FD4F649121E030E0A90102C0440F551F7C
S1132BD06A95E2F7BA01682B82E0F8DEDF91CF91C3
S1132BE01F910895CF93C82F82E0BFDEEC2FF0E051
S1132BF0EA5EFD4FE49121E030E0A90102C0440FF8
S1132C00551FEA95E2F7FA01E0956E2F682382E0FA
S1132C10DDDECF91089580E0A8DE682F616080E05A
S1132C20D5DE60E787E0D2DE82E0E0E4F6E085838B
S1132C3080915D23882339F040915A236DE573E236
S1132C408AE0A6DE02C080E0CDDF8DE18EDE81FD6C
S1132C503ACF0895CF93DF931F921F92CDB7DEB77B
S1132C6080E5898383E78A8380E066DE42E050E082
S1132C70BE016F5F7F4F80EC98E011D181E05CDE94
S1132C800F900F90DF91CF910895CF93C82F86E0D6
S1132C906CDE887FC43020F46C2F660F6F5F01C038
S1132CA067E0682B86E092DECF910895CF93DF939F
S1132CB0D82F86E05ADEC82FC77DD23071F4C062A7
S1132CC046E351E060E070E0409364235093652351
S1132CD060936623709367231CC0D13069F04AEA7D
S1132CE050E060E070E04093642350936523609368
S1132CF06623709367230DC0C86042E850E060E02B
S1132D0070E040936423509365236093662370932B
S1132D1067236C2F86E05ADE86E027DE91E0C81335
S1132D2090E0892FDF91CF910895CF92DF92EF92B7
S1132D30FF920F931F93CF93DF931F92CDB7DEB70C
S1132D4041E050E062E080E496E0CBD041E050E026
S1132D5064E080E496E0C5D040E058E160E180E4BE
S1132D6096E0BFD043E050E060E280E496E0B9D062
S1132D7040E050E060E480E496E0B3D043E050E00B
S1132D8060E880E496E0ADD080E1898380EC98E04F
S1132D9050D0C12CD12C760100E012E12AE730E0BA
S1132DA040E0BE016F5F7F4F80EC98E059D0E0ECCB
S1132DB0F8E080818064808382E0E0E4F6E086834A
S1132DC081E0BADD80E090E0019680322EE4920743
S1132DD0D9F76CE080E0FADD6FE584E0F7DD10926E
S1132DE0632382E063DF882319F081E08093632307
S1132DF080E05CDF2FDF60E08DE1E8DD60E08CE106
S1132E00E5DD60E787E0E2DD8CE463DE59DE5BDE6E
S1132E106DDE80E0AADD682F6E7F80E0D7DD0F9045
S1132E20DF91CF911F910F91FF90EF90DF90CF90A2
S1132E300895CF93DF93EC01C03C28E0D20721F43E
S1132E4068E083E0E2D006C0803C994019F468E071
S1132E5084E0DBD0888180618883DF91CF910895FD
S1132E60FF920F931F93CF93DF93EC01F42EB901DC
S1132E70A80100E016E32EE631E009D188234CF0E6
S1132E8088819F2D990F990F9C70837FF92EF82AC2
S1132E90F882DF91CF911F910F91FF900895FC016B
S1132EA0DB01460F571F05C08D91838382818823E0
S1132EB0ECF7A417B507C1F780E00895FC01DB0126
S1132EC04115510561F0460F571F9FEF938382818F
S1132ED08823ECF783818D93A417B507B9F780E0B5
S1132EE00895CF93DF93FC01709620E030E0C62F65
S1132EF0D0E0DE01022E02C0B595A7950A94E2F750
S1132F00A0FD50832F5F3F4F31962830310589F75C
S1132F1040FF0AC041FF03C0FC01658302C0FC01FD
S1132F206683FC01618302C0FC016283DF91CF915F
S1132F300895CF93DF9300D01F92CDB7DEB78FEF04
S1132F40809370008093710080937200809373006B
S1132F5080937400809375008093760064E081E42C
S1132F6090E0E6D06CE170E082E0D8D08A836DE135
S1132F7070E082E0D3D0898389819A81019621F41B
S1132F8080E493E289839A8389819A818B839C83E9
S1132F90E0E6F0E082838C8183838FB7F894E0E5E8
S1132FA0F0E09081926090838FBF818181FFFDCF9B
S1132FB08FB7F894A0E5B0E016969C911697997F88
S1132FC016969C931697E0E6F0E090E895839BEBC9
S1132FD0968316969C911697946016969C9390816E
S1132FE0916090838FBF61E080E490E0A1D08FB7BF
S1132FF0F894E0E5F0E090819E7F90838FBF249663
S1133000CDBFDEBFDF91CF9108959FB7F894E82F2D
S1133010F0E0E059FF4F60958081682360839FBF93
S11330200895863011F468E101C060E0E0E5F0E065
S1133030818181FD24C08FB7F89490819260908340
S11330408FBF818181FFFDCF8FB7F894A0E5B0E0F9
S113305016969C911697997F16969C931697E0E680
S1133060F0E090E895839BEB968316969C911697D7
S1133070946016969C939081916090838FBF636057
S113308084E490E055D060E480E0BFCF0895CF920F
S1133090DF92EF92FF920F931F93CF93DF93EC0194
S11330A06A017B01DB01CA010197A109B109BC01D5
S11330B0CD01600F711F821F931FA70196018CD150
S11330C02138310541055105F8F4213460F42132E9
S11330D060F4213160F4293060F4253060F4233049
S11330E060F090E00BC093E009C092E007C092E862
S11330F005C091E003C091E801C090E888818C7715
S1133100892B888381E001C08FEFDF91CF911F91DC
S11331100F91FF90EF90DF90CF9008954091CA01F6
S1133120E62FF72F8093CA0184914093CA01089532
S11331301BBEFC0128ED24BF6083089541E050E0EC
S113314062E080E096E0CDDE41E050E060E280E6BF
S113315096E0C7DE41E050E061E080E496E0C1DE45
S113316041E050E068E080E496E0BBDE41E050E0FE
S113317062E080E496E0B5DE41E050E064E080E4A3
S113318096E0AFDE43E050E060E280E496E0A9DE42
S113319040E050E060E480E496E0A3DE43E050E0E9
S11331A060E880E496E09DCE089581E08093492311
S11331B00895109249230895CF93DF93EC018881F9
S11331C0882349F02196992787FD90950E94CE0384
S11331D089918111F8CFDF91CF910895CF93DF9337
S11331E0CDB7DEB72997CDBFDEBF4AE0BE016F5F22
S11331F07F4F23D1CE010196DFDF2996CDBFDEBFFD
S1133200DF91CF91089595DE87E0E0EAF0E08283D4
S1133210789494DF0E94BC0488DD80E261DC83E062
S113322034DD10925B2380E2E0E6F6E0878385E0FC
S113323089DC6CE770E281E092DCEDDC0F2EF0EAD1
S1133240CF2EF02D0F2EF6E8DF2EF02DEE24E39492
S1133250F12C0F2EF0E62F2EF6E03F2EF02D689481
S1133260BB24B5F80F2EF1E74F2EF3E25F2EF02DBD
S11332700F2EF3E76F2EF3E27F2EF02D0F2EF5E7DE
S11332808F2EF3E29F2EF02D07E713E2C9E7D3E276
S11332908C2D9D2DAE2DBF2D0197A109B10900974D
S11332A0A105B105C9F780E090E032DC882381F301
S11332B0F101B7826CE08FE693E23FDC82E890E2B2
S11332C07BDF80916F239091702388DF85E990E202
S11332D073DFF2018081918181DF88E890E26CDF05
S11332E0F301808191817ADF85E990E265DFF40161
S11332F08081918173DF8FE890E25EDFF801808145
S11333009181817099276ADF85E990E255DFF801A0
S113331080818695817090E061DF85E990E24CDFE1
S1133320F801808182FB882780F990E057DF85E9E6
S113333090E242DFF801808183FB882780F990E0E6
S11333404DDF85E990E238DFF80180818295817054
S113335090E044DF83E990E22FDF888199818170D6
S113336099273CDF85E990E227DF88818695817083
S113337090E034DF85E990E21FDF888182FB8827B3
S113338080F990E02BDF85E990E216DF888183FBEA
S1133390882780F990E022DF85E990E20DDF8881BB
S11333A08295817090E01ADF87E990E205DF70CFA3
S11333B0AA1BBB1B51E107C0AA1FBB1FA617B70757
S11333C010F0A61BB70B881F991F5A95A9F7809573
S11333D09095BC01CD010895A1E21A2EAA1BBB1B36
S11333E0FD010DC0AA1FBB1FEE1FFF1FA217B307CD
S11333F0E407F50720F0A21BB30BE40BF50B661FE3
S1133400771F881F991F1A9469F7609570958095A6
S113341090959B01AC01BD01CF010895EE0FFF1FF4
S11334200590F491E02D1994FB01DC0102C0019098
S11334300D9241505040D8F70895BB274A3031F4DB
S1133440992322F4BDE2909581959F4F01C0BB273B
S1133450FB015527AA27880F991FAA1FA41710F04C
S1133460A41B83955051B9F7A05DAA3308F0A95D58
S1133470A193009779F7B111B1931192CB0100C0D8
S1133480DC01FC01672F71917723E1F7329704C0C7
S11334907C916D9370836291AE17BF07C8F3089552
S10734A0F894FFCFCA
S11334A4F9028C023601380189028B0130013A0198
S11334B438010000040309046A201E2000002620A9
S11334C422200A20002009024300020100C032091C
S11334D40400000102020100052400100104240276
S11334E402052406000105240103010705820340A3
S11334F4001009040100020A0000000705810240CB
S1133504000007050202400000001201000202004C
S11335140040EB030424000100000001726F626F99
S11335247400526A6F792000204C6A6F792000205D
S10D3534522000204C20000D0A0074
S9030000FC
