S0130000526F6269745F784D6567612E73726563C0
S113000014C1000033C1000031C100002FC1000041
S11300102DC100002BC1000029C1000027C1000030
S113002025C1000023C1000021C100001FC1000040
S11300301DC100001BC1000024C700004FC7000001
S11300407AC70000A5C70000D0C70000FBC70000A6
S11300500C944F080C947C080C94A9080C94D608B2
S113006005C1000003C1000001C10000FFC0000081
S1130070FDC00000FBC00000F9C00000F7C0000094
S1130080F5C00000F3C00000F1C00000EFC00000A4
S1130090EDC00000EBC00000E9C00000E7C00000B4
S11300A0E5C00000E3C00000E1C00000DFC00000C4
S11300B0DDC00000DBC00000D9C000000C94C50AFC
S11300C00C94F20A0C941F0B0C944C0B0C94790BAB
S11300D00C94A60B0C94D30B0C94000C0C942D0CC8
S11300E00C945A0CC3C00000C1C00000BFC0000083
S11300F0BDC00000BBC00000B9C00000B7C0000014
S1130100B5C00000B3C00000B1C00000AFC0000023
S1130110ADC00000ABC00000A9C00000A7C0000033
S1130120A5C00000A3C00000A1C000009FC0000043
S11301309DC000000C9403090C9430090C945D09D3
S11301400C948A090C94B7090C94E4090C94110AD0
S11301500C943E0A0C946B0A0C94980A87C0000015
S113016085C0000083C0000081C000007FC0000083
S11301707DC000007BC0000079C0000077C0000093
S113018075C0000073C0000071C000006FC00000A3
S11301906DC000006BC0000069C0000067C00000B3
S11301A065C0000063C0000061C000005FC00000C3
S11301B00C94870C0C94B40C0C94E10C0C940E0D60
S11301C00C943B0D0C94680D51C000004FC000000E
S11301D04DC000004BC0000049C0000047C00000F3
S11301E045C0000043C0000041C000003FC0000003
S11301F03DC000000C9439140C94F314800E950E39
S1130200AA0EBF0ED40EE90EFE0E421030103310AB
S1130210361039103C103F101112131415160A0B26
S11302200C0D0E0F00010203040511241FBECFEFB5
S1130230CDBFDFE5DEBF00E00CBF10E2A0E0B0E21E
S1130240E8E5FAE300E00BBF02C007900D92A23884
S1130250B107D9F723E2A4E8B0E201C01D92A73C9C
S1130260B207E1F70E94861B0C942A1DC9CE809127
S11302709A21815080939A21089580E0089580E026
S11302800895809132238823DCF480768032E9F566
S1130290809133238132D9F5809138239091392389
S11302A00797B9F588EA91E280933A2390933B2328
S11302B087E090E080933C2390933D2381E0089570
S11302C08076803241F580913323803221F082326E
S11302D021F581E00895809138239091392307977F
S11302E0F1F481E991E080933E2390933F2388EADF
S11302F091E280933A2390933B2387E090E08093AC
S11303003C2390933D2381E0089580E0089580E0AC
S1130310089580E0089580E0089580E0089580E0E5
S11303200895089510929A211092A6211092A7215F
S113033081EA80939C2180E280939D2110929E21EA
S113034010929F211092A0211092A12182E090E0AE
S11303508093A2219093A3211092A4211092A5210D
S113036080E092ECA1E0B0E08093A8219093A921D1
S1130370A093AA21B093AB211092AC211092AD218D
S113038088E08093AE210E947F1B882329F09091FE
S11303909A219F5F90939A210895FF920F931F9340
S11303A0CF93DF938091872081119CC00E947B12A0
S11303B0882351F0C0918820D09189200E9488120E
S11303C0C817D90759F48EC0C0918820D0918920CC
S11303D00E948312C817D90709F484C0DFB7F894C0
S11303E0C0918A20EC2FF0E0EE0FFF1FE557FF4D80
S11303F080819181892B09F58091842090918520B9
S1130400019680938420909385200E947B12811111
S113041007C080918420909185208436910558F0FE
S11304200E947B12882349F080918420909185203A
S11304308032934010F4DFBF55C010928420109294
S1130440852080918620811106C081E0C11180E061
S113045080938A2004C081E0C11180E0C82F81E02C
S113046080938720DFBFD0E0FE01EE0FFF1FE5572A
S1130470FF4DFF24F394808191818034910509F428
S1130480F12CFF2091F00E947B12882339F00E9406
S1130490881280938820909389200BC00E94831235
S11304A0809388209093892004C010928820109211
S11304B08920FE01EE0FFF1FE557FF4D208131819A
S11304C0AE01002456954795079456954795079491
S11304D0542F402D40575F4D08E712E06F2D81E8FF
S11304E00E943A13DF91CF911F910F91FF900895CD
S11304F0811115C020918A2081E090E0222311F01F
S113050080E090E0FC01EE0FFF1FE557FF4D1082E5
S11305101182109286201092872080E03ECF0895A9
S113052080E03BCF08958091992181508093992157
S1130530809199210E94831B1092982108954FB7AE
S1130540F8942091112130911221E0911321F0E0CF
S1130550EE0FFF1FEC5EFE4D80819181821B930B99
S11305604FBF0895ECDF21E0892B09F420E0822FAE
S113057008950F931F93CF93DF934FB7F89450913F
S1130580132180911021811110C0209111213091EB
S11305901221C52FD0E0FE01EE0FFF1FEC5EFE4DD1
S11305A0808191812817390718F44FBF80E023C058
S11305B0109211211092122181E0511180E0809358
S11305C0132181E0809310214FBF80E0CBDFAE0187
S11305D00024569547950794569547950794542FAC
S11305E0402D485E5E4D02E313E020E430E061E01C
S11305F082E00E943A13DF91CF911F910F910895E9
S113060010929921109287201092862010928A20AD
S113061010928B2010928C2010928D2010928E209C
S1130620109288201092892080E0B7DE1092102169
S1130630109213211092142110921521109211215D
S11306401092122180E095DF882359F0909199212E
S11306509F5F9093992190919921913011F49093F7
S1130660982108950F931F93942F811129C080918D
S11306701321E1E08111E0E061157105B1F4F0E0CE
S11306800024F695E7950794F695E7950794FE2FD1
S1130690E02DAF01485E5E4D02E313E020E430E05C
S11306A061E0892F0E943A130BC0F0E0EE0FFF1FA8
S11306B0EC5EFE4D608371831092102180E059DF5F
S11306C01F910F910895E091B421F091B52101900B
S11306D0F081E02D228133812E0F3F1FFC014081E8
S11306E0E40FF11DE217F307A0F481818430A1F037
S11306F0861306C014C081818430A1F08617A9F046
S11307008081E80FF11DE217F307A8F380E090E081
S1130710089580E090E0089580E090E008958E2FA1
S11307209F2F089580E090E008958E2F9F2F0895C5
S1130730809134238F770C947D1208959091B62183
S1130740992381F1E091B421F091B5210190F081D8
S1130750E02D9481891740F5E093B221F093B32101
S1130760228133812E0F3F1FE217F307F8F49181A2
S1130770943061F49281981309C09381961306C052
S1130780E093B221F093B32181E008959081E90FC1
S1130790F11DE217F30758F3E093B221F093B3216C
S11307A080E0089580E0089580E0089580E0089551
S11307B0FF920F931F93CF93DF93C82F60E0BEDFA8
S11307C0F82E882381F1A091B421B091B521EC2FAA
S11307D0F0E0EE0FFF1F12962D913C911397E20F5C
S11307E0F31F00811181D8011696ED91FC911797A2
S11307F01995682F8C2FA2DFF82E8823A1F0C091C1
S1130800B221D091B32165E0CE015DDFEC01009708
S113081021F08A810E94FB13F6CFD8011296ED9144
S1130820FC91139719958F2DDF91CF911F910F9103
S1130830FF9008951F93CF93DF93182F7FDF8823B2
S113084041F1C091B221D091B32165E0CE013BDFEB
S1130850EC01009749F04C815D816B818A810E9493
S113086094128111F2CF15C0A091B421B091B52199
S1130870812F90E0880F991F1296ED91FC911397A8
S1130880E80FF91F0190F081E02D0190F081E02D37
S11308901995DF91CF911F9108950C940712089533
S11308A0CF938091B6218823C1F0E091B421F091D7
S11308B0B5210190F081E02D8481882371F0C0E09E
S11308C08C2F76DFCF5FE091B421F091B5210190B8
S11308D0F081E02D8481C81798F31092B62181E04D
S11308E090E08093BA219093BB21CF910895CF9348
S11308F08091B621882341F1E091B421F091B52192
S1130900A081B18114968C918823F1F0C0E08C2FE2
S113091090E0880F991F0280F381E02DE80FF91F02
S11309200190F081E02D0084F185E02D309709F0ED
S11309301995CF5FE091B421F091B521A081B181E7
S113094014968C91C81718F3CF910895EF92FF92E3
S11309500F931F93CF93DF9310923C2310923D2368
S113096010923E2310923F23109240231092412371
S11309702091322322230CF072C28091382390916B
S11309803923009709F070C266C22F7109F091C033
S113099030913323363089F0383009F47EC0311178
S11309A088C0029741F462E070E08AEB91E20E9411
S11309B08B1201E0D3C100E0D1C1209134233091E6
S11309C03523832F992782309105A1F01CF40197D8
S11309D039F059C083309105E9F10F9769F153C09B
S11309E08091182090911920DC016C9170E00E9494
S11309F08B1238C0E0911820F091192081892817B2
S1130A0008F043C0C9019927880F991F880F991FBF
S1130A10E0911A20F0911B20E80FF91F8081918149
S1130A20FC01628173810E948B12E0913A23F09160
S1130A303B2382E0818316C080911C2090911D206D
S1130A40009729F1DC0112966D917C9113970E9415
S1130A508B1208C021111DC064E070E084E190E2B3
S1130A600E948B12809138239091392320913C234A
S1130A7030913D238217930770F480933C23909325
S1130A803D2301E06BC100E069C100E067C100E003
S1130A9065C100E063C101E061C1019741F461E017
S1130AA070E086EB91E20E948B1201E057C100E0F6
S1130AB055C1213009F040C0309133233A30E1F57B
S1130AC00197A1F58091B621882391F1C091362335
S1130AD0D0913723E090B421F090B521D701ED9166
S1130AE0FC918481C81730F560E08C2F27DE082F35
S1130AF0882309F433C1CE019927880F991FD701A0
S1130B001296ED91FC911397E80FF91F0190F08173
S1130B10E02D0680F781E02D19958093B82161E0DE
S1130B2070E088EB91E20E948B1218C100E016C1BC
S1130B3000E014C100E012C1223009F011C120917B
S1130B403323211106C1029789F4809136230E9430
S1130B50F51290E08093B0219093B12162E070E0AF
S1130B6080EB91E20E948B1201E0F8C000E0F6C035
S1130B702F7109F091C080913323833009F4EBC0C5
S1130B8018F48130B1F088C0853019F0893061F1F2
S1130B9083C08091382390913923892B41F488E9CB
S1130BA093E080933E2390933F2301E0D7C000E07D
S1130BB0D5C08091382390913923892B89F4809171
S1130BC0342390913523019769F48091BA2190914F
S1130BD0BB218D7F8093BA219093BB2101E0BEC0DD
S1130BE000E0BCC000E0BAC0809138239091392362
S1130BF0892B09F047C00E948012882309F444C05D
S1130C0020913423309135233327E0911820F0913B
S1130C101920818990E082179307C0F141DE809109
S1130C203423909135238093B621882389F1992721
S1130C308150904C880F991F880F991FE0911A20BA
S1130C40F0911B20E80FF91FE093B421F093B52134
S1130C500190F081E02D84818823E1F0C0E060E020
S1130C608C2FE8DD082F882309F478C0CF5FE0914A
S1130C70B421F091B5210190F081E02D8481C81751
S1130C8070F36CC000E06AC000E068C000E066C0B9
S1130C9001E064C001E062C0213009F58091332392
S1130CA08B30E9F48091382390913923892B99F47E
S1130CB08091B621882389F0C0913623D0913423C2
S1130CC08C2F76DD082F882309F448C06D2F8C2FD4
S1130CD0B1DD082F43C000E041C000E03FC0223036
S1130CE009F03EC080913323813019F08330B9F08C
S1130CF034C08091382390913923892B61F48091F9
S1130D00342390913523892B41F4809136230E941A
S1130D101013082F23C000E021C000E01FC0809101
S1130D20382390913923892B81F480913423909135
S1130D303523892B61F4C6E3D3E288810E94C21370
S1130D4088810E941814082F09C000E007C000E041
S1130D5005C000E003C000E001C000E0011189C04B
S1130D60809132238F718130C1F58091B62188231F
S1130D70A1F1C0913623D09137230091B421109171
S1130D80B521D801ED91FC918481C81730F560E05C
S1130D908C2FD4DC882309F1CE019927880F991F61
S1130DA0D8011296ED91FC911397E80FF91F008179
S1130DB01181D8011696ED91FC9117971995682F1A
S1130DC08C2FBCDC882349F0D8011496ED91FC915A
S1130DD015971995082F81114CC0809132238F717A
S1130DE08230D9F58091B621882389F1E091B4212C
S1130DF0F091B521A081B18114968C91882349F199
S1130E0010E0212F30E0220F331F0280F381E02D08
S1130E10E20FF31FC081D181EE81FF811995682F04
S1130E20812F8CDC082F882321F1EC81FD81199519
S1130E30082F81111EC01F5FE091B421F091B521EC
S1130E40A081B18114968C911817D8F212C000E0D9
S1130E5010C000E00EC000E00CC000E00AC0822F09
S1130E60807609F07DCF84CE322F307609F078CFAA
S1130E708CCD802FDF91CF911F910F91FF90EF9038
S1130E8008951F920F920FB60F9211240BB60F9272
S1130E902F933F934F935F936F937F938F939F937E
S1130EA0AF93BF93EF93FF93E0910222F09103225B
S1130EB0309709F01995FF91EF91BF91AF919F91F0
S1130EC08F917F916F915F914F913F912F910F90EF
S1130ED00BBE0F900FBE0F901F9018951F920F928C
S1130EE00FB60F9211240BB60F922F933F934F938B
S1130EF05F936F937F938F939F93AF93BF93EF937E
S1130F00FF93E0910022F0910122309709F01995A6
S1130F10FF91EF91BF91AF919F918F917F916F91CD
S1130F205F914F913F912F910F900BBE0F900FBE89
S1130F300F901F9018951F920F920FB60F921124C5
S1130F400BB60F922F933F934F935F936F937F93BF
S1130F508F939F93AF93BF93EF93FF93E091FE2101
S1130F60F091FF21309709F01995FF91EF91BF910E
S1130F70AF919F918F917F916F915F914F913F912D
S1130F802F910F900BBE0F900FBE0F901F901895CE
S1130F901F920F920FB60F9211240BB60F922F933C
S1130FA03F934F935F936F937F938F939F93AF93ED
S1130FB0BF93EF93FF93E091FC21F091FD213097D3
S1130FC009F01995FF91EF91BF91AF919F918F9186
S1130FD07F916F915F914F913F912F910F900BBE35
S1130FE00F900FBE0F901F9018951F920F920FB67F
S1130FF00F9211240BB60F922F933F934F935F934D
S11310006F937F938F939F93AF93BF93EF93FF93CC
S1131010E091FA21F091FB21309709F01995FF91A5
S1131020EF91BF91AF919F918F917F916F915F915C
S11310304F913F912F910F900BBE0F900FBE0F90C9
S11310401F9018951F920F920FB60F9211240BB692
S11310500F922F933F934F935F936F937F938F934D
S11310609F93AF93BF93EF93FF93E091F821F09197
S1131070F921309709F01995FF91EF91BF91AF9144
S11310809F918F917F916F915F914F913F912F919C
S11310900F900BBE0F900FBE0F901F9018951F92CC
S11310A00F920FB60F9211240BB60F922F933F930A
S11310B04F935F936F937F938F939F93AF93BF935C
S11310C0EF93FF93E091F621F091F721309709F027
S11310D01995FF91EF91BF91AF919F918F917F915E
S11310E06F915F914F913F912F910F900BBE0F9095
S11310F00FBE0F901F9018951F920F920FB60F926C
S113110011240BB60F922F933F934F935F936F93DA
S11311107F938F939F93AF93BF93EF93FF93E0914C
S1131120F421F091F521309709F01995FF91EF9191
S1131130BF91AF919F918F917F916F915F914F91EB
S11311403F912F910F900BBE0F900FBE0F901F90E9
S113115018951F920F920FB60F9211240BB60F928F
S11311602F933F934F935F936F937F938F939F93AB
S1131170AF93BF93EF93FF93E091F221F091F321AA
S1131180309709F01995FF91EF91BF91AF919F911D
S11311908F917F916F915F914F913F912F910F901C
S11311A00BBE0F900FBE0F901F9018951F920F92B9
S11311B00FB60F9211240BB60F922F933F934F93B8
S11311C05F936F937F938F939F93AF93BF93EF93AB
S11311D0FF93E091F021F091F121309709F01995F6
S11311E0FF91EF91BF91AF919F918F917F916F91FB
S11311F05F914F913F912F910F900BBE0F900FBEB7
S11312000F901F9018951F920F920FB60F921124F2
S11312100BB60F922F933F934F935F936F937F93EC
S11312208F939F93AF93BF93EF93FF93E091EE213E
S1131230F091EF21309709F01995FF91EF91BF914B
S1131240AF919F918F917F916F915F914F913F915A
S11312502F910F900BBE0F900FBE0F901F901895FB
S11312601F920F920FB60F9211240BB60F922F9369
S11312703F934F935F936F937F938F939F93AF931A
S1131280BF93EF93FF93E091EC21F091ED21309720
S113129009F01995FF91EF91BF91AF919F918F91B3
S11312A07F916F915F914F913F912F910F900BBE62
S11312B00F900FBE0F901F9018951F920F920FB6AC
S11312C00F9211240BB60F922F933F934F935F937A
S11312D06F937F938F939F93AF93BF93EF93FF93FA
S11312E0E091EA21F091EB21309709F01995FF91F3
S11312F0EF91BF91AF919F918F917F916F915F918A
S11313004F913F912F910F900BBE0F900FBE0F90F6
S11313101F9018951F920F920FB60F9211240BB6BF
S11313200F922F933F934F935F936F937F938F937A
S11313309F93AF93BF93EF93FF93E091E821F091D4
S1131340E921309709F01995FF91EF91BF91AF9181
S11313509F918F917F916F915F914F913F912F91C9
S11313600F900BBE0F900FBE0F901F9018951F92F9
S11313700F920FB60F9211240BB60F922F933F9337
S11313804F935F936F937F938F939F93AF93BF9389
S1131390EF93FF93E091E621F091E721309709F074
S11313A01995FF91EF91BF91AF919F918F917F918B
S11313B06F915F914F913F912F910F900BBE0F90C2
S11313C00FBE0F901F9018951F920F920FB60F9299
S11313D011240BB60F922F933F934F935F936F9308
S11313E07F938F939F93AF93BF93EF93FF93E0917A
S11313F0E421F091E521309709F01995FF91EF91DF
S1131400BF91AF919F918F917F916F915F914F9118
S11314103F912F910F900BBE0F900FBE0F901F9016
S113142018951F920F920FB60F9211240BB60F92BC
S11314302F933F934F935F936F937F938F939F93D8
S1131440AF93BF93EF93FF93E091E221F091E321F7
S1131450309709F01995FF91EF91BF91AF919F914A
S11314608F917F916F915F914F913F912F910F9049
S11314700BBE0F900FBE0F901F9018951F920F92E6
S11314800FB60F9211240BB60F922F933F934F93E5
S11314905F936F937F938F939F93AF93BF93EF93D8
S11314A0FF93E091E021F091E121309709F0199543
S11314B0FF91EF91BF91AF919F918F917F916F9128
S11314C05F914F913F912F910F900BBE0F900FBEE4
S11314D00F901F9018951F920F920FB60F92112420
S11314E00BB60F922F933F934F935F936F937F931A
S11314F08F939F93AF93BF93EF93FF93E091DE217C
S1131500F091DF21309709F01995FF91EF91BF9188
S1131510AF919F918F917F916F915F914F913F9187
S11315202F910F900BBE0F900FBE0F901F90189528
S11315301F920F920FB60F9211240BB60F922F9396
S11315403F934F935F936F937F938F939F93AF9347
S1131550BF93EF93FF93E091DC21F091DD2130976D
S113156009F01995FF91EF91BF91AF919F918F91E0
S11315707F916F915F914F913F912F910F900BBE8F
S11315800F900FBE0F901F9018951F920F920FB6D9
S11315900F9211240BB60F922F933F934F935F93A7
S11315A06F937F938F939F93AF93BF93EF93FF9327
S11315B0E091DA21F091DB21309709F01995FF9140
S11315C0EF91BF91AF919F918F917F916F915F91B7
S11315D04F913F912F910F900BBE0F900FBE0F9024
S11315E01F9018951F920F920FB60F9211240BB6ED
S11315F00F922F933F934F935F936F937F938F93A8
S11316009F93AF93BF93EF93FF93E091D821F09111
S1131610D921309709F01995FF91EF91BF91AF91BE
S11316209F918F917F916F915F914F913F912F91F6
S11316300F900BBE0F900FBE0F901F9018951F9226
S11316400F920FB60F9211240BB60F922F933F9364
S11316504F935F936F937F938F939F93AF93BF93B6
S1131660EF93FF93E091D621F091D721309709F0C1
S11316701995FF91EF91BF91AF919F918F917F91B8
S11316806F915F914F913F912F910F900BBE0F90EF
S11316900FBE0F901F9018951F920F920FB60F92C6
S11316A011240BB60F922F933F934F935F936F9335
S11316B07F938F939F93AF93BF93EF93FF93E091A7
S11316C0D421F091D521309709F01995FF91EF912C
S11316D0BF91AF919F918F917F916F915F914F9146
S11316E03F912F910F900BBE0F900FBE0F901F9044
S11316F018951F920F920FB60F9211240BB60F92EA
S11317002F933F934F935F936F937F938F939F9305
S1131710AF93BF93EF93FF93E091D221F091D32144
S1131720309709F01995FF91EF91BF91AF919F9177
S11317308F917F916F915F914F913F912F910F9076
S11317400BBE0F900FBE0F901F9018951F920F9213
S11317500FB60F9211240BB60F922F933F934F9312
S11317605F936F937F938F939F93AF93BF93EF9305
S1131770FF93E091D021F091D121309709F0199590
S1131780FF91EF91BF91AF919F918F917F916F9155
S11317905F914F913F912F910F900BBE0F900FBE11
S11317A00F901F9018951F920F920FB60F9211244D
S11317B00BB60F922F933F934F935F936F937F9347
S11317C08F939F93AF93BF93EF93FF93E091CE21B9
S11317D0F091CF21309709F01995FF91EF91BF91C6
S11317E0AF919F918F917F916F915F914F913F91B5
S11317F02F910F900BBE0F900FBE0F901F90189556
S11318001F920F920FB60F9211240BB60F922F93C3
S11318103F934F935F936F937F938F939F93AF9374
S1131820BF93EF93FF93E091CC21F091CD213097BA
S113183009F01995FF91EF91BF91AF919F918F910D
S11318407F916F915F914F913F912F910F900BBEBC
S11318500F900FBE0F901F9018951F920F920FB606
S11318600F9211240BB60F922F933F934F935F93D4
S11318706F937F938F939F93AF93BF93EF93FF9354
S1131880E091CA21F091CB21309709F01995FF918D
S1131890EF91BF91AF919F918F917F916F915F91E4
S11318A04F913F912F910F900BBE0F900FBE0F9051
S11318B01F9018951F920F920FB60F9211240BB61A
S11318C00F922F933F934F935F936F937F938F93D5
S11318D09F93AF93BF93EF93FF93E091C821F0914F
S11318E0C921309709F01995FF91EF91BF91AF91FC
S11318F09F918F917F916F915F914F913F912F9124
S11319000F900BBE0F900FBE0F901F9018951F9253
S11319100F920FB60F9211240BB60F922F933F9391
S11319204F935F936F937F938F939F93AF93BF93E3
S1131930EF93FF93E091C621F091C721309709F00E
S11319401995FF91EF91BF91AF919F918F917F91E5
S11319506F915F914F913F912F910F900BBE0F901C
S11319600FBE0F901F9018951F920F920FB60F92F3
S113197011240BB60F922F933F934F935F936F9362
S11319807F938F939F93AF93BF93EF93FF93E091D4
S1131990C421F091C521309709F01995FF91EF9179
S11319A0BF91AF919F918F917F916F915F914F9173
S11319B03F912F910F900BBE0F900FBE0F901F9071
S11319C018951F920F920FB60F9211240BB60F9217
S11319D02F933F934F935F936F937F938F939F9333
S11319E0AF93BF93EF93FF93E091C221F091C32192
S11319F0309709F01995FF91EF91BF91AF919F91A5
S1131A008F917F916F915F914F913F912F910F90A3
S1131A100BBE0F900FBE0F901F9018951F920F9240
S1131A200FB60F9211240BB60F922F933F934F933F
S1131A305F936F937F938F939F93AF93BF93EF9332
S1131A40FF93E091C021F091C121309709F01995DD
S1131A50FF91EF91BF91AF919F918F917F916F9182
S1131A605F914F913F912F910F900BBE0F900FBE3E
S1131A700F901F9018951F920F920FB60F9211247A
S1131A800BB60F922F933F934F935F936F937F9374
S1131A908F939F93AF93BF93EF93FF93E091BE21F6
S1131AA0F091BF21309709F01995FF91EF91BF9103
S1131AB0AF919F918F917F916F915F914F913F91E2
S1131AC02F910F900BBE0F900FBE0F901F90189583
S1131AD01F920F920FB60F9211240BB60F922F93F1
S1131AE03F934F935F936F937F938F939F93AF93A2
S1131AF0BF93EF93FF93E091BC21F091BD21309708
S1131B0009F01995FF91EF91BF91AF919F918F913A
S1131B107F916F915F914F913F912F910F900BBEE9
S1131B200F900FBE0F901F901895CF93CFB7F894D6
S1131B30282F392F211588E0380749F461E083E024
S1131B400E94AF1A64E083E00E94AF1A4FC02034B1
S1131B5088E0380749F462E083E00E94AF1A64E049
S1131B6083E00E94AF1A42C0211589E0380749F486
S1131B7061E084E00E94AF1A64E084E00E94AF1A3E
S1131B8035C0203489E0380749F462E084E00E94DB
S1131B90AF1A64E084E00E94AF1A28C021158AE0DD
S1131BA0380749F461E085E00E94AF1A64E085E0FB
S1131BB00E94AF1A1BC020348AE0380749F462E05F
S1131BC085E00E94AF1A64E085E00E94AF1A0EC05F
S1131BD021153B4049F461E086E00E94AF1A64E0BD
S1131BE086E00E94AF1A02C0CFBF09C08FB7F89435
S1131BF0E2E5F3E290819F5F90838FBFCFBFCF91E7
S1131C000895CF92DF92EF92FF92CF93DF93EC018E
S1131C106B01E12CF12C60E076E38EE691E0A70104
S1131C2096010E94EA1CCA01B9012FEF3FEF40E080
S1131C3050E00E94EA1C2115310529F481E08C83CF
S1131C4021E030E02DC02230310528F482E08C837D
S1131C5022E030E025C02430310528F483E08C8371
S1131C6024E030E01DC02830310528F484E08C8362
S1131C7028E030E015C02034310528F485E08C8359
S1131C8020E430E00DC02F3F310509F028F486E050
S1131C908C8320E031E004C087E08C8320E034E0D2
S1131CA040E050E060E076E38EE691E00E94EA1CBA
S1131CB0CA01B901A70196010E94EA1C2D833E8343
S1131CC02436310518F41C821D821E82DF91CF91C7
S1131CD0FF90EF90DF90CF900895EF92FF920F93D3
S1131CE01F93CF93DF93EC017901062F10E00730A7
S1131CF0110508F097C0F801E250FF4F0C940C1D39
S1131D0080E098E088839983E0E4F6E0508121E064
S1131D1030E08FEF840FB90102C0660F771F8A95F8
S1131D20E2F7CB01852B80837DC080E498E0888333
S1131D309983E0E4F6E0508121E030E083E0840F11
S1131D40B90102C0660F771F8A95E2F7CB01852B94
S1131D50808368C080E099E088839983E0E6F6E0B8
S1131D60508121E030E08FEF840FB90102C0660F8B
S1131D70771F8A95E2F7CB01852B808353C080E4DB
S1131D8099E088839983E0E6F6E0508121E030E031
S1131D9083E0840FB90102C0660F771F8A95E2F7CA
S1131DA0CB01852B80833EC080E09AE088839983B1
S1131DB0E0E8F6E0508121E030E08FEF840FB901D4
S1131DC002C0660F771F8A95E2F7CB01852B8083CB
S1131DD029C080E49AE088839983E0E8F6E05081A2
S1131DE021E030E083E0840FB90102C0660F771F61
S1131DF08A95E2F7CB01852B808314C080E09BE0B9
S1131E0088839983E0EAF6E0508121E030E08FEFA7
S1131E10840FB90102C0660F771F8A95E2F7CB01E0
S1131E20852B80834A83423061F018F4413031F0CD
S1131E3010C0433049F0443051F00BC080E18B8333
S1131E4008C080E28B8305C080E48B8302C080E8F5
S1131E508B838881998169DEE881F9818181887F1A
S1131E60836081831D821E821C82E881F9818081C6
S1131E70807F8083B701CE01C4DEDF91CF911F91B3
S1131E800F91FF90EF900895811118C09091302325
S1131E90992389F09FB7F894E2E5F3E22081215079
S1131EA020839FBF08C09FB7F894E2E5F3E2208146
S1131EB02F5F20839FBF8093302308959091302318
S1131EC0992389F3F8CF0F93E8ECF4E080818F7DB8
S1131ED0808380818F7D8083E4E0F3E202E00593D8
S1131EE0109206231092072300E2069300E406935F
S1131EF0ECEFF2E200E2069300E4069310923E2334
S1131F0010923F23109240231092412310923C23BD
S1131F1010923D231092ED220F9108950F9385E0C6
S1131F208093ED22E5E0F3E204E00593EDEFF2E2C5
S1131F3004E005930F9108950F9383E08093ED22BD
S1131F401092062310920723E4E0F3E202E00693E2
S1131F500F910895E0913E23F0913F23309709F0CB
S1131F60199508950F93CF93DF938091ED228330D9
S1131F7019F4F0DFA8DF60C08091E9229091EA2291
S1131F80C0913C23D0913D23C81BD90B71F52091FE
S1131F90EB223091EC22820F931F8093EB229093DB
S1131FA0EC2220913823309139238217930721F0B2
S1131FB080910422882341F084E08093ED22ECEFA9
S1131FC0F2E202E0069338C0E0914023F09141230D
S1131FD0309799F01995882381F01092E922109294
S1131FE0EA22C0913C23D0913D23C034D10528F08E
S1131FF010920422C0E4D0E003C081E08093042264
S1132000C0930623D09307238091E9229091EA227A
S113201020913A2330913B23280F391F2093082322
S113202030930923C80FD91FC093E922D093EA2221
S1132030E4E0F3E202E00693DF91CF910F9108957B
S1132040FC018181877090E0FC013197E730F10554
S113205020F4EB5FFE4F0C940C1D88E090E0089593
S113206080E290E0089580E490E0089580E890E0B4
S1132070089580E091E0089580E092E008958FEF64
S113208093E0089580E190E00895282F2F7030E0C8
S1132090220F331F992787FD90958827990F881F52
S11320A09927820F931F02979C01220F331F220F3F
S11320B0331F220F331F820F931F8B579D4D08959B
S11320C00F93CF938091CC0480FF63C081E0809311
S11320D0CC04ECEFF2E200E80693E4E0F3E200E87B
S11320E006938093CA04ECEFF2E200E10693809138
S11320F0ED22882329F08350823008F42BDFE3DEBD
S11321008091FE229091FF22089709F044C088E054
S1132110E9EAF2E2A2E3B3E201900D928A95E1F7D3
S1132120E8ECF4E080818062808380818062808337
S11321300E94A604C82F811103C0F0DEC1E02CC0A8
S11321408091322388236CF41092EB221092EC22BB
S11321501092E9221092EA2282E08093ED2202DFBB
S11321601BC02091382330913923232B11F4E4DE52
S113217013C01092EB221092EC221092E9221092DA
S1132180EA2281E08093ED22ECEFF2E202E0069392
S113219003C0C0E001C0C1E08C2FCF910F9108951E
S11321A0BF92CF92DF92EF92FF920F931F93CF9340
S11321B0DF93B82E6ADFEC011B2D111F1127111FAD
S11321C08B2D8F70E82EF12CEE0CFF1CE10EF11C10
S11321D0C701880F991F880F991F880F991F9C01A9
S11321E024503D4D7901C9012BDF6C01112309F401
S11321F05BC0D70116962D913C9117978D819E81D6
S1132200280F391F2D833E838B819C812817390722
S1132210C9F1FC01E21BF30B9F012115F4E03F0718
S113222040F02FEF33E0C901B6010E94D61C281BF1
S1132230390B888181FF0AC0C901B6010E94D61CEE
S113224041E0892B09F040E0942F01C090E088819F
S113225090FB81F98883D70116961D921C921797DB
S113226012962D933C93139729813A818D819E81F7
S1132270820F931F14968D939C931597F70102E098
S1132280069398C0888181FF87C08D7F8883D7019A
S113229016961D921C92179712961D921C921397D4
S11322A0F70102E0069386C0D70112960D911C91A6
S11322B01397888182FF15C0E981FA812D813E81BF
S11322C08B819C81B6010E94D61CB0E4BB9EB001F8
S11322D011246B537E4DAC01CF01820F931F0E94DA
S11322E0211D2D813E81200F311F2D833E83EB81E3
S11322F0FC81E217F30710F4ED83FE83D7011696F1
S11323008D919C9117978017910709F045C08D8195
S11323109E81E817F90709F43FC0E81BF90BE115A2
S1132320B4E0FB0748F0EFEFF3E0CF01B6010E9401
S1132330D61CE81BF90B06C0CF01B6010E94D61CBF
S1132340E81BF90BD70112961D921C921397EC15FA
S1132350FD0578F4888184608883B0E4BB9EC00165
S113236011248B539E4DF70184839583C682D782B3
S11323700FC029813A818D819E81820F931FD701DD
S113238014968D939C9315971696ED93FC9317973B
S1132390F70102E006930EC0888180FF0BC08E7F98
S11323A08883EF81F885309729F06D817E814B2DEC
S11323B080E01995DF91CF911F910F91FF90EF90DD
S11323C0DF90CF90BF900895CF93CFB7F89481E07A
S11323D05BDDEAECF4E080E4808380E28083E1EC7E
S11323E0F4E0808181608083A9ECB4E08C91826008
S11323F08C93E8ECF4E08081806480838C9181602C
S11324008C93808180688083CFBFCF910895CF93D0
S1132410DF93C0E6D0E0188280E30E94BB1AE0ECB0
S1132420F4E080818064808381E08883CFB7F8946E
S11324301092FD221092052310920D231092152361
S113244010921D2310922523E5E8F2E280818E7F0D
S11324508083EEE8F2E280818E7F8083E7E9F2E216
S113246080818E7F8083E0EAF2E280818E7F8083A8
S11324706AE170E082E00E94381B8F3F19F080937C
S1132480FA0403C08FE18093FA046BE170E082E008
S11324900E94381B8F3F19F08093FB0403C08FE127
S11324A08093FB04E0ECF4E080818260808380818F
S11324B0806880838081806180838CEF92E2868350
S11324C097838081806280838FEF8093C504E8ECDA
S11324D0F4E0808181608083109230238FB7F89478
S11324E0E6E5F3E290819F5F90838FBF6DDFCFBFFE
S11324F0DF91CF91089580E008958093C3040895F7
S11325008091C304089580912C2390912D230895E4
S113251080E090E0089580933A2390933B23609366
S11325203C2370933D230895E82FEF70F0E0EE0F05
S1132530FF1F992787FD90958827990F881F992752
S1132540E80FF91FEE0FFF1FEE0FFF1FEE0FFF1F27
S1132550E450FD4D8181807C09F043C0637061309B
S113256029F010F480E403C080E801C080EC403816
S11325705105E1F050F440325105A1F040345105C9
S113258099F04031510561F419C0411592E05907A1
S113259089F04F3F93E0590779F04115514041F0DC
S11325A020E00DC022E00BC023E009C024E007C0F6
S11325B025E005C026E003C027E001C021E0118228
S11325C096E09083822B81838181807C803C21F4FE
S11325D081818770873039F081818062818381E0D5
S11325E0089580E0089581E00895E82FEF70F0E009
S11325F0EE0FFF1F992787FD90958827990F881F55
S11326009927E80FF91FEE0FFF1FEE0FFF1FEE0FC4
S1132610FF1FE450FD4D818182FB882780F90895D6
S1132620E82FEF70F0E0EE0FFF1F282F332727FD70
S113263030952227330F221F3327E20FF31FEE0FAB
S1132640FF1FEE0FFF1FEE0FFF1FE450FD4D9181A2
S113265092FF0EC091819B7F918317DDFC018081E5
S113266080FF06C08E7F80830780F085E02D19955A
S113267081E008957F928F929F92AF92BF92CF9202
S1132680DF92EF92FF920F931F93CF93DF93982ED5
S1132690862E5A016901F9DC7C01792C771C772498
S11326A0771CC92DCF70D0E0CC0FDD1FC70DD11D15
S11326B0CC0FDD1FCC0FDD1FCC0FDD1FC450DD4D53
S11326C08981807C09F44CC08981807C803C19F02C
S11326D0898182FD47C08FB7F894F701908190FFFC
S11326E003C08FBF712C3FC0F7019081916090832C
S11326F08FBFF701A182B282C382D482158216826F
S113270007831087811006C091E0C114D10419F029
S113271090E001C091E0F701808190FB81F98B7F0B
S11327208083772019F01E821F8215C08981807CE6
S1132730803C69F4CE0184DCBC01C6010E94D61C35
S1132740892B29F0F70180818E7F80830CC01A8247
S11327501B821E821F82892D23DD7724739403C07C
S1132760712C01C0712C872DDF91CF911F910F9196
S1132770FF90EF90DF90CF90BF90AF909F908F909D
S11327807F900895FF920F931F93CF93DF93182F99
S1132790F82EFF1CFF24FF1CC82FCF70D0E0CC0FF5
S11327A0DD1FCF0DD11DCC0FDD1FCC0FDD1FCC0FD6
S11327B0DD1FC450DD4D69DCDC01FE0102E0059340
S11327C08C9180FF12C08E7F8C931796ED91FC91B3
S11327D01897309751F0FF2019F06E817F8102C065
S11327E06A817B81412F81E01995DF91CF911F91FF
S11327F00F91FF900895CF93C82FC4DFEC2FEF7093
S1132800F0E0EE0FFF1F8C2F992787FD9095882706
S1132810990F881F9927E80FF91FEE0FFF1FEE0F7E
S1132820FF1FEE0FFF1FE450FD4D1182CF9108955D
S11328300F93E82FEF70F0E0EE0FFF1F282F3327E0
S113284027FD30952227330F221F3327E20FF31F72
S1132850EE0FFF1FEE0FFF1FEE0FFF1FE450FD4DA5
S113286091819460918301E006938CDF81E00F9164
S113287008951F920F920FB60F9211240BB60F9268
S11328800F932F933F934F935F936F937F938F9304
S11328909F93AF93BF93EF93FF938091CB048823CF
S11328A034F480E88093CA040E94770488C080913D
S11328B0CB0482FF20C084E08093CA048091042367
S11328C086FF7DC08091CC0481FD79C0F9DB811144
S11328D076C08091ED22813011F42EDB70C08430FB
S11328E009F06DC0E5E0F3E204E00593EDEFF2E2F8
S11328F004E0059364C08091CB0481FF5BC082E057
S11329008093CA048091FC2286FF59C08091CC0434
S113291081FD55C0D5DB811152C08091ED228230FA
S113292041F484E08093ED22ECEFF2E202E00693BE
S113293046C0833009F043C0E5E0F3E204E00593C8
S1132940EDEFF2E204E005933AC080E18093CA041B
S113295081E018DF81E816DF0E9450041092C3045E
S1132960EDEFF2E2108296E09093FC2283E4808300
S1132970E5E0F3E2108290930423808389EA92E2F3
S113298080930023909301239EDA19C08091CB0495
S113299086FF06C080E48093CA0480E075DA0FC025
S11329A08091CB0485FF0BC080E28093CA0481E050
S11329B06BDA05C08091CB0484FFE8CFC6CFFF91CA
S11329C0EF91BF91AF919F918F917F916F915F91A3
S11329D04F913F912F910F910F900BBE0F900FBE0F
S11329E00F901F9018951F920F920FB60F921124FB
S11329F00BB60F920F931F932F933F934F935F93B5
S1132A006F937F938F939F93AF93BF93CF93DF93F2
S1132A10EF93FF938091CC0481FD03C051DB8111BE
S1132A20B8C082E08093CC048091C5048195880F5E
S1132A30ECEFF2E2E81BF109208131812C5F324294
S1132A40369527953695279536952795822F869521
S1132A5020FF02C090E801C090E0890FE82FEF70DA
S1132A60F0E0EE0FFF1F282F332727FD3095222794
S1132A70330F221F3327E20FF31FEE0FFF1FEE0F5A
S1132A80FF1FEE0FFF1FE450FD4D908195FF81C0A5
S1132A9000E20693811178C08091ED22843019F40C
S1132AA059DA11DA76C0C091FE22D091FF228091CA
S1132AB03C2390913D230091E9221091EA22980150
S1132AC02C0F3D1F8217930718F4EC01C01BD10B88
S1132AD080913A2390913B23AE0169EA72E2800F20
S1132AE0911FAFD70C0F1D1F0093E9221093EA2208
S1132AF0C034D10569F48091EB229091EC22800FCF
S1132B00911F20913823309139238217930788F03D
S1132B1000933C2310933D23E0914023F091412303
S1132B20309729F01995811102C0F8D932C004DA1E
S1132B3030C080913C2390913D2308171907F9F484
S1132B40E0914023F0914123309711F4E7D921C05B
S1132B501995811102C0E2D91CC02091EB22309159
S1132B60EC228091E9229091EA22820F931F8093B4
S1132B70EB229093EC221092E9221092EA22ECEFDD
S1132B80F2E202E0069305C0803811F4EBD901C0EB
S1132B9007DBFF91EF91DF91CF91BF91AF919F91AF
S1132BA08F917F916F915F914F913F912F911F91E1
S1132BB00F910F900BBE0F900FBE0F901F901895A2
S1132BC06F927F928F929F92AF92BF92CF92DF9239
S1132BD0EF92FF920F931F93CF93DF93EC01162F85
S1132BE0F42E39018E2D877088248394912C6401EE
S1132BF002C0CC0CDD1C8A95E2F7AE2CA694A694F8
S1132C00A69420E2A29E500111248AEFB81A43E050
S1132C1050E06C2DC5010FD4802F8770B40102C021
S1132C20660F771F8A95E2F7069506950695E0E20A
S1132C300E9FC001112441E050E09A5FFCD3930140
S1132C404F2D612FCE0149D8EF82188619861A8636
S1132C501B86F501C582688579858A859B8514D68E
S1132C60CE01F3D0DF91CF911F910F91FF90EF90A0
S1132C70DF90CF90BF90AF909F908F907F906F9098
S1132C800895CF93DF93EC014130A9F48F81E82FAD
S1132C90E695E695E69540E2E49FF0011124FA5F9B
S1132CA0877021E030E0A90102C0440F551F8A95C6
S1132CB0E2F7458314C08F81E82FE695E695E69503
S1132CC050E2E59FF0011124FA5F877021E030E0C3
S1132CD0A90102C0440F551F8A95E2F74683611586
S1132CE0710529F4188619861A861B8614C0613169
S1132CF057E2750748F040E050E46CE176E4488719
S1132D0059876A877B8707C080E090E0E9D56887A8
S1132D1079878A879B87688579858A859B85B4D5D9
S1132D20CE015ED0DF91CF910895DF92EF92FF92B2
S1132D300F931F93CF93DF93EC01162FD42E7901B9
S1132D40802F877021E030E0B90102C0660F771F41
S1132D508A95E2F706950695069520E2029FC00142
S1132D60112441E050E09A5F66D397014D2D612F05
S1132D70CE010E946D0E88E293E28B879C876EEEF3
S1132D8072E0CE0162D0DF91CF911F910F91FF903D
S1132D90EF90DF900895FC01161617061CF01386B9
S1132DA014860BC0613586E478072CF080E596E440
S1132DB08387948702C06387748723853485AFE84B
S1132DC0B3EE30D696958795929582958F70892724
S1132DD09F708927BC016C507E4FCF0101C00895BC
S1132DE0CF93DF93EC019B01AD81BE811BD620E123
S1132DF037E240E050E0EED58A81E881F981E6FDD2
S1132E0017C0823061F018F4813031F01BC0833078
S1132E1049F0843051F016C020AF31AF13C022AF57
S1132E2033AF10C024AF35AF0DC026AF37AF0AC0E3
S1132E30813019F0823021F005C020AF31AF02C0DB
S1132E4022AF33AFDF91CF910895CF93DF93EC019D
S1132E50C7DF8D819E81E881F98186A397A38B8149
S1132E60E881F981E6FD04C09181892B818304C046
S1132E7091818073892B8183E881F9818081807FAE
S1132E809C81892B8083DF91CF910895882329F039
S1132E9084E0E0E4F6E0858304C084E0E0E4F6E066
S1132EA0868380E090E0019684319105E1F70895EE
S1132EB0FC01638382818823ECF783810895CF9397
S1132EC0C82F80E0E3DF6C2F6F7180EC98E0F0DFB7
S1132ED06FEF80EC98E0ECDFC82F81E0D7DF8C2F18
S1132EE0CF9108950F931F93CF93DF93182FEB0186
S1132EF0042F80E0CBDF1F71612F606280EC98E0CB
S1132F00D7DF182F402F50E0BE0180EC98E071D23B
S1132F1081E0BCDF812FDF91CF911F910F91089544
S1132F201F93CF93DF931F92CDB7DEB7182F69831A
S1132F3080E0ACDF1F71612F606280EC98E0B8DF45
S1132F40182F41E050E0BE016F5F7F4F80EC98E0A6
S1132F5050D281E09BDF812F0F90DF91CF911F91A1
S1132F6008958F929F92AF92BF92CF92DF92EF9289
S1132F70FF920F931F93CF93DF93CDB7DEB75C011E
S1132F80EDB6FEB600915023962E061708F4902E47
S1132F9080914323811102C0091901C000E010E0AF
S1132FA08DB79EB7801B910B8DBF9EBF01966C01A0
S1132FB080E06CDF61E680EC98E07ADF882E492DB2
S1132FC050E0B50180EC98E023D2A801B60180EC72
S1132FD098E01ED281E05ADF882DEDBEFEBEDF915F
S1132FE0CF911F910F91FF90EF90DF90CF90BF9002
S1132FF0AF909F908F900895CF93C82F80E046DFC5
S11330006C2F80EC98E054DFC82F81E03FDF8C2FD9
S1133010CF91089582EEF0CF089581EEEDCF08951B
S11330208FEFEACF0895803808F08FE7682F85E0A6
S113303077CF0895813208F080E280935023089579
S113304080E03DDF81FD0DC080E039DF682F6260E4
S113305080E066DF80E090E0019680322EE4920703
S1133060D9F70895CF93DF93EC0187E128DF80FD42
S113307008C0209741F0D4DF86958770888381E06B
S113308003C080E001C081E0DF91CF91089569DF42
S113309060E787E045CF0895CF93825041F0C82F71
S11330A0C3706C2F83E03CDFCE5FC0934223CF918B
S11330B008951F93CF93DF93182FEB01811107C05D
S11330C04091422350E085E493E2BBD405C08730AD
S11330D008F02EC0823050F4E12FF0E0E25EFD4FA4
S11330E0849140914223BE01FDDE07C0E82FF0E049
S11330F0E25EFD4F849141E0F5DEC12FD0E0FE0198
S1133100E85EFD4F8491609150230ADF82E0D7DEB0
S1133110FE01EC5DFD4F649121E030E0A90102C0A5
S1133120440F551F6A95E2F7BA01682B82E0F8DE76
S1133130DF91CF911F910895CF93C82F82E0BFDE16
S1133140EC2FF0E0EC5DFD4FE49121E030E0A901CB
S113315002C0440F551FEA95E2F7FA01E0956E2F7D
S1133160682382E0DDDECF91089580E0A8DE682F39
S1133170616080E0D5DE60E787E0D2DE82E0E0E4F3
S1133180F6E0858380914523882339F040914223DA
S113319065E473E28AE0A6DE02C080E0CDDF8DE163
S11331A08EDE81FD3ACF0895CF93DF931F921F9255
S11331B0CDB7DEB780E5898383E78A8380E066DE66
S11331C042E050E0BE016F5F7F4F80EC98E011D188
S11331D081E05CDE0F900F90DF91CF910895CF9343
S11331E0C82F86E06CDE887FC43020F46C2F660F15
S11331F06F5F01C067E0682B86E092DECF9108958F
S1133200CF93DF93D82F86E05ADEC82FC77DD23004
S113321071F4C06246E351E060E070E040934C23F7
S113322050934D2360934E2370934F231CC0D13091
S113323069F04AEA50E060E070E040934C23509318
S11332404D2360934E2370934F230DC0C86042E812
S113325050E060E070E040934C2350934D23609322
S11332604E2370934F236C2F86E05ADE86E027DED0
S113327091E0C81390E0892FDF91CF910895CF9208
S1133280DF92EF92FF920F931F93CF93DF931F92DE
S1133290CDB7DEB741E050E062E080E496E0CBD009
S11332A041E050E064E080E496E0C5D040E058E1BD
S11332B060E180E496E0BFD043E050E060E280E467
S11332C096E0B9D040E050E060E480E496E0B3D00A
S11332D043E050E060E880E496E0ADD080E189838B
S11332E080EC98E050D0C12CD12C760100E012E1A2
S11332F02AE730E040E0BE016F5F7F4F80EC98E04A
S113330059D0E0ECF8E080818064808382E0E0E4DE
S1133310F6E0868381E0BADD80E090E001968032B9
S11333202EE49207D9F76CE080E0FADD6FE584E0E3
S1133330F7DD10924B2382E063DF882319F081E0EC
S113334080934B2380E05CDF2FDF60E08DE1E8DDDC
S113335060E08CE1E5DD60E787E0E2DD8CE463DEDC
S113336059DE5BDE6DDE80E0AADD682F6E7F80E0D3
S1133370D7DD0F90DF91CF911F910F91FF90EF90C8
S1133380DF90CF900895CF93DF93EC01C03C28E009
S1133390D20721F468E083E0E2D006C0803C994083
S11333A019F468E084E0DBD0888180618883DF9150
S11333B0CF910895FF920F931F93CF93DF93EC0166
S11333C0F42EB901A80100E016E32EE631E009D19C
S11333D088234CF088819F2D990F990F9C70837FCF
S11333E0F92EF82AF882DF91CF911F910F91FF9067
S11333F00895FC01DB01460F571F05C08D9183839F
S113340082818823ECF7A417B507C1F780E00895FB
S1133410FC01DB014115510561F0460F571F9FEF79
S1133420938382818823ECF783818D93A417B50756
S1133430B9F780E00895CF93DF93FC01709620E004
S113344030E0C62FD0E0DE01022E02C0B595A7956C
S11334500A94E2F7A0FD50832F5F3F4F3196283046
S1133460310589F740FF0AC041FF03C0FC016583B1
S113347002C0FC016683FC01618302C0FC0162831B
S1133480DF91CF910895CF93DF9300D01F92CDB7F2
S1133490DEB78FEF80937000809371008093720089
S11334A080937300809374008093750080937600FA
S11334B064E081E490E0E6D06CE170E082E0D8D092
S11334C08A836DE170E082E0D3D0898389819A8117
S11334D0019621F480E493E289839A8389819A8115
S11334E08B839C83E0E6F0E082838C8183838FB7B7
S11334F0F894E0E5F0E09081926090838FBF818141
S113350081FFFDCF8FB7F894A0E5B0E016969C91AB
S11335101697997F16969C931697E0E6F0E090E84C
S113352095839BEB968316969C91169794601696BA
S11335309C939081916090838FBF61E080E490E0E0
S1133540A1D08FB7F894E0E5F0E090819E7F90835E
S11335508FBF2496CDBFDEBFDF91CF9108959FB773
S1133560F894E82FF0E0E059FF4F609580816823DC
S113357060839FBF0895863011F468E101C060E064
S1133580E0E5F0E0818181FD24C08FB7F89490815B
S1133590926090838FBF818181FFFDCF8FB7F894B4
S11335A0A0E5B0E016969C911697997F16969C9389
S11335B01697E0E6F0E090E895839BEB96831696E9
S11335C09C911697946016969C9390819160908339
S11335D08FBF636084E490E055D060E480E0BFCFA7
S11335E00895CF92DF92EF92FF920F931F93CF93A0
S11335F0DF93EC016A017B01DB01CA010197A10998
S1133600B109BC01CD01600F711F821F931FA70177
S11336109601E0D12138310541055105F8F42134F2
S113362060F4213260F4213160F4293060F42530F3
S113363060F4233060F090E00BC093E009C092E0A6
S113364007C092E805C091E003C091E801C090E88A
S113365088818C77892B888381E001C08FEFDF918B
S1133660CF911F910F91FF90EF90DF90CF9008952D
S11336704091CA01E62FF72F8093CA0184914093A9
S1133680CA0108951BBEFC0128ED24BF6083089580
S113369041E050E062E080E096E0CDDE41E050E0C1
S11336A060E280E696E0C7DE41E050E061E080E45D
S11336B096E0C1DE41E050E068E080E496E0BBDEE5
S11336C041E050E062E080E496E0B5DE41E050E0A5
S11336D064E080E496E0AFDE43E050E060E280E442
S11336E096E0A9DE40E050E060E480E496E0A3DEEA
S11336F043E050E060E880E496E09DCE089581E0E8
S1133700809331230895109231230895BCDE87E01D
S1133710E0EAF0E082837894BBDF0E944D04E12C60
S113372008E220EA3FE041E066E087E593E248DA18
S1133730EE24E39409E220EA3FE042E066E083E617
S113374093E23EDA6894EE24E1F80AE220EA3FE0EC
S113375043E066E08FE693E233DA0F2EF3E0EF2ED8
S1133760F02D0BE220EA3FE044E066E08BE793E2D1
S113377027DA41E068E873E187E593E282DA41E021
S113378068E873E183E693E27CDA41E068E873E198
S11337908FE693E276DA41E068E873E18BE793E23F
S11337A070DA08E122E330E041E062E083E993E289
S11337B0BCDA09E122E330E042E062E080EA93E22D
S11337C0B4DA0AE122E330E043E062E08DEA93E216
S11337D0ACDA0BE122E330E044E062E08AEB93E20E
S11337E0A4DA4DDD80E226DC83E0F9DC1092432389
S11337F080E2E0E6F6E0878385E04EDC6CE770E289
S113380081E057DCB2DC0F2EF0EACF2EF02D0F2E24
S1133810F6E8DF2EF02DEE24E394F12C00E616E01A
S11338206894BB24B5F88C2D9D2DAE2DBF2D01972A
S1133830A109B1090097A105B105C9F780E090E09D
S113384011DC8823F1F0F801B7826CE087E893E299
S11338501EDC17C0BE0183E993E29DDABE0180EA53
S113386093E299DABE018DEA93E295DABE018AEB1E
S113387093E291DACC50DE4FC035F6E4DF0751F71E
S1133880D2CFC0E0D0E0E6CF70D088F09F5790F060
S1133890B92F9927B751A0F0D1F0660F771F881F71
S11338A0991F1AF0BA95C9F712C0B13081F077D0D8
S11338B0B1E0089574C0672F782F8827B85F39F076
S11338C0B93FCCF3869577956795B395D9F73EF4D0
S11338D090958095709561957F4F8F4F9F4F089578
S11338E0E89409C097FB3EF4909580957095619596
S11338F07F4F8F4F9F4F9923A9F0F92F96E9BB274C
S11339009395F695879577956795B795F111F8CFC7
S1133910FAF4BB0F11F460FF1BC06F5F7F4F8F4F32
S11339209F4F16C0882311F096E911C0772321F028
S11339309EE8872F762F05C0662371F096E8862FC0
S113394070E060E02AF09A95660F771F881FDAF717
S1133950880F9695879597F9089557FD9058440FC9
S1133960551F59F05F3F71F04795880F97FB991FDA
S113397061F09F3F79F08795089512161306140697
S1133980551FF2CF4695F1DF08C016161706180624
S1133990991FF1CF86957105610508940895E894FF
S11339A0BB2766277727CB0197F90895AA1BBB1B72
S11339B051E107C0AA1FBB1FA617B70710F0A61B2B
S11339C0B70B881F991F5A95A9F780959095BC014C
S11339D0CD010895A1E21A2EAA1BBB1BFD010DC047
S11339E0AA1FBB1FEE1FFF1FA217B307E407F507AB
S11339F020F0A21BB30BE40BF50B661F771F881F87
S1133A00991F1A9469F760957095809590959B011C
S1133A10AC01BD01CF010895EE0FFF1F0590F49195
S1133A20E02D1994A29FB001B39FC001A39F700D14
S1133A30811D1124911DB29F700D811D1124911DB2
S1133A400895FB01DC0102C001900D9241505040E9
S10B3A50D8F70895F894FFCFA4
S1133A58000393023D013F019002920137014101A5
S1133A683F010000040309046A201E2000002620E8
S1133A7822200A20002009024300020100C0320962
S1133A8804000001020201000524001001042402BC
S1133A9802052406000105240103010705820340E9
S1133AA8001009040100020A000000070581024011
S1133AB80000070502024000000012010002020093
S1133AC80040EB030424000100000001726F626FE0
S1053AD8740074
S9030000FC
